:020000040800F2
:10000000380D0020E51600089D0700089F0700082E
:10001000A3070008A7070008AB07000800000000BE
:10002000000000000000000000000000AF07000812
:10003000B107000800000000B3070008B50700087A
:10004000FF160008FF160008FF160008FF1600083C
:10005000FF160008FF160008FF160008FF1600082C
:10006000FF160008FF160008FF160008FF1600081C
:10007000FF160008FF160008FF160008FF1600080C
:10008000FF160008FF160008FF160008FF160008FC
:10009000FF160008FF160008FF160008FF160008EC
:1000A000FF160008FF160008FF160008FF160008DC
:1000B000FF160008FF160008FF1600087F0C000856
:1000C000EB0D0008FF160008FF160008FF160008D9
:1000D000FF160008FF160008810F0008CD14000865
:1000E000FF160008FF160008FF160008FF1600089C
:1000F000FF160008FF160008FF160008FF1600088C
:10010000FF160008FF160008FF160008FF1600087B
:1001100011130008FF160008FF160008FF1600085C
:10012000FF160008FF160008FF160008FF1600085B
:1001300000F002F800F05AF80AA090E8000C82449F
:100140008344AAF10107DA4501D100F04FF8AFF27C
:10015000090EBAE80F0013F0010F18BFFB1A43F0A5
:1001600001031847A4260000C42600000A444FF0EB
:10017000000C10F8013B13F0070408BF10F8014B06
:100180001D1108BF10F8015B641E05D010F8016B4B
:10019000641E01F8016BF9D113F0080F1EBF10F8AF
:1001A000014BAD1C0C1B09D16D1E58BF01F801CBD2
:1001B000FAD505E014F8016B01F8016B6D1EF9D555
:1001C0009142D6D37047000000230024002500266A
:1001D000103A28BF78C1FBD8520728BF30C148BFAA
:1001E0000B6070471FB51FBD10B510BD02F0B1FA0E
:1001F0001146FFF7F7FF00F01AF802F0CFFA03B448
:10020000FFF7F2FF03BC02F0D3FA000010B545F28D
:10021000555001F0A5FE062001F0A5FE40F6354040
:1002200001F0A4FE01F0A5FE01F0A8FE10BD08B586
:10023000002401F0E7F901F04FFAFFF7E7FF4FF470
:10024000965000F01FFE4FF4965001F083F84FF4E3
:10025000614000F0A5FF1E21FE4801F027F84FF491
:100260007A7001F00CFA4FF47A7001F008FA4FF44A
:100270007A7001F004FA4FF47A7001F000FA4FF44A
:100280007A7001F0FCF977E20821F34801F0ECF80C
:100290004FF47A7001F0F3F94FF47A7001F0EFF94E
:1002A000EE48EF4BEF4AF0490090F048006800F04C
:1002B00008FCEA480078EE4981F84500E8480078F3
:1002C00081F84300E748007881F84200E64800786A
:1002D00081F84100E148E24BE24AE3490090E548F9
:1002E000006800F0EEFBDD480078E14981F8550038
:1002F000DB48007881F85300DA48007881F8520032
:10030000D948007881F851005A21D94800F04EFBB5
:10031000D94908805A20D9490860D949D648008867
:1003200000F080FBD749086000240CE0D448005D51
:10033000CF49D24A12688854D0480068401CCF493F
:100340000860601CC4B2CF4800688442EEDB5A20CB
:10035000C749CA4A12688854C8480068401CC7493F
:1003600008600846008881B2C14800F09FFF4FF442
:100370007A7001F084F901F0FCFD0821B64801F023
:1003800073F84FF47A7001F07AF94FF47A7001F053
:1003900076F9B24BB24AB349BB48006800F0D7FBCC
:1003A000AE480078B94981F84300AD48007881F83B
:1003B0004200AC48007881F84100A84BA84AA949FE
:1003C000B348006800F0C3FBA4480078AF4981F847
:1003D0005400A348007881F85300A248007881F8BF
:1003E00052005C21A94800F0E1FAA34908805C2092
:1003F000A2490860A249A048008800F013FBA14967
:10040000086000240CE09E48005DA0499B4A1268E9
:1004100088549A480068401C98490860601CC4B21F
:10042000984800688442EEDB5A209849934A126843
:10043000885492480068401C90490860084600882B
:1004400081B2924800F032FF01F093FD08219148FB
:1004500001F00AF84FF47A7001F011F908218E4882
:1004600001F002F84FF47A7001F009F94FF47A7054
:1004700001F005F979487A4B7A4A7B490090874820
:10048000006800F01EFB75480078854981F844003B
:100490007348007881F842007248007881F8410082
:1004A0007148007881F840006C486D4B6D4A6E4988
:1004B00000907C48006800F004FB684800787849A8
:1004C00081F854006648007881F853006548007848
:1004D00081F852006448007881F851005A21704830
:1004E00000F064FA644908805A206449086064494D
:1004F0006148008800F096FA6249086000240CE028
:100500005F48005D66495D4A126888545B48006830
:10051000401C5A490860601CC4B25A4800688442B2
:10052000EEDB5A205E49554A1268885453480068E9
:10053000401C524908600846008881B2584800F0C3
:10054000B5FE4FF47A7001F09AF801F012FD08211F
:10055000414800F089FF4FF47A7001F090F84FF4B1
:100560007A7001F08CF83D483D4B3E4A3E49009080
:100570004D48006800F0A5FA384800784B4981F8EA
:1005800045003748007881F843003648007881F804
:1005900042003548007881F841003048304B314AFC
:1005A000314900904248006800F08BFA2B480078EF
:1005B0003E4981F856002A48007881F854002948BD
:1005C000007881F853002848007881F852005A21B9
:1005D000364800F0EBF9284908805A20274908607E
:1005E00027492548008800F01DFA264908600024A4
:1005F0000CE02348015D2D48204A126881541F48B1
:100600000068401C1D490860601CC4B21D48006899
:100610008442EEDB5A212548184A12688154174853
:100620000068401C154908600846008881B21F48D0
:1006300000F03CFE4FF47A7001F021F84FF47A702C
:1006400001F01DF84FF47A7001F019F801F091FCF7
:10065000184831E04800002040000020050000203C
:100660000400002003000020020000206804002095
:10067000CA0000206C040020000000200C000020B4
:1006800010000020140000207404002066000020E8
:10069000780400203000002038000020640400208E
:1006A0002701002060040020700400208401002045
:1006B0007C040020AF0500200079304981F8460015
:1006C0002F48C07881F845002D48807881F8430094
:1006D0002B48407881F842002948007881F8410091
:1006E0002848C07881F855002648807881F8540061
:1006F0002448407881F852002248007881F851005F
:100700005A211E4800F052F91F4908805A201F49FB
:1007100008601F491C48008800F084F91D490860E2
:1007200000240CE01A48005D1449184A12688854E5
:1007300016480068401C15490860601CC4B2154882
:1007400000688442EEDB5A210C48104A126881543A
:100750000E480068401C0D4908600846008881B2B8
:10076000064800F0A3FD4FF47A7000F088FF01F016
:1007700000FC00200849087086E50000E801002020
:10078000AF0500209B050020000000200C00002089
:10079000100000201400002080040020704700BFDB
:1007A000FEE700BFFEE700BFFEE700BFFEE77047C1
:1007B00070477047704700000CB500200190009012
:1007C0006C48006840F480306A49086000BF69489E
:1007D000006800F4003000900198401C01900098DF
:1007E00018B90198B0F5A06FF1D16248006800F423
:1007F000003010B10120009001E00020009000982E
:10080000012843D15C48006840F010005A49086054
:100810000846006820F0030008600846006840F0C1
:1008200002000860534840685249486008464068E2
:1008300048600846406840F4806048600846406868
:1008400020F47C1048600846406840F4E810486096
:100850000846006840F08070086000BF45480068A6
:1008600000F000700028F9D04248406820F00300F2
:10087000404948600846406840F00200486000BFB8
:100880003C48406800F00C000828F9D10CBD10B5B8
:10089000FFF792FF10BD10B53648006840F0010028
:1008A0003449086008464068344908403149486086
:1008B00008460068324908402E490860084600682A
:1008C00020F4802008600846406820F4FE0048605C
:1008D0004FF41F008860FFF7DAFF4FF000602949EE
:1008E000086010BD10B5002100200022214B5B687C
:1008F00003F00C0121B1042906D0082928D107E012
:10090000214B224C236027E01F4B204C236023E027
:10091000184B5B6803F47010164B5B6803F480326D
:10092000022303EB904022B9194B4343174C236039
:100930000DE0104B5B6803F4003323B1144B4343C9
:10094000124C236003E0104B4343104C236003E040
:100950000D4B0E4C236000BF00BF064B5B68C3F31A
:1009600003130C4CE15C094B1B68CB40074C236024
:1009700010BD000000100240002002400000FFF8FF
:10098000FFFFF6FE08ED00E000127A0018000020DC
:1009900000093D001C00002010B50346002002E0C5
:1009A0000C5C1C54401C9042FADB10BDF0B50246B2
:1009B0000B46002000240021082130E0555C565CE5
:1009C000A62E06D14E1C965D012E02D1491CA625ED
:1009D00012E0565CA62E06D14E1C965D022E02D168
:1009E000491CA52508E0565C5B2E05D14E1C965D82
:1009F000012E01D1491C5B25565C5B2E05D14E1C96
:100A0000965D022E01D1491C5A25C6B2EFB286EA84
:100A10000704674E36F8146086EA1020491C994294
:100A2000CCDBF0BD10B5024600200A70401C0B78EC
:100A3000A52B05D1A6230B7002234B70401C17E099
:100A40000B78A62B04D10B7001234B70401C0FE0D8
:100A50000B785A2B05D15B230B7002234B70401C83
:100A600006E00B785B2B03D10B7001234B70401C0D
:100A7000130A0B540B5CA52B06D1A6230B5402249E
:100A8000431CCC54401C1AE00B5CA62B05D10B5424
:100A90000124431CCC54401C11E00B5C5A2B06D1A2
:100AA0005B230B540224431CCC54401C07E00B5C1A
:100AB0005B2B04D10B540124431CCC54401C401C20
:100AC00010BDF0B5059C4FF47A7590FBF5F50A263C
:100AD00095FBF6F706FB17550D700D7815B9202517
:100AE0000D7002E00D7830350D70642590FBF5F542
:100AF0000A2695FBF6F706FB175515700D78202D85
:100B000004D1157815B92025157002E01578303517
:100B100015700A2590FBF5F50A2695FBF6F706FBFE
:100B200017551D701578202D04D11D7815B9202575
:100B30001D7002E01D7830351D700A2590FBF5F61A
:100B400005FB16052570257830352570F0BD70B58C
:100B5000642490FBF4F40A2594FBF5F605FB164497
:100B60000C700C7814B920240C7002E00C7830342E
:100B70000C700A2490FBF4F40A2594FBF5F605FBAF
:100B8000164414700C78202C04D1147814B9202445
:100B9000147002E01478303414700A2490FBF4F5D9
:100BA00004FB15041C701C7830341C7070BD0000F0
:100BB0004802002010B586B000240121480501F04C
:100BC0006AFB0121082001F059FBC020ADF8140098
:100BD00003208DF816001C208DF8170005A99848F1
:100BE00000F06EFE974801900020ADF808004BF62B
:100BF000FF70ADF80A003C20ADF80C004FF48060A7
:100C0000ADF80E000001ADF8100001A98E4800F00B
:100C1000BEFF01224FF4E0618B4801F0A1F81F20D4
:100C20008DF8000001208DF8010000208DF80200F1
:100C300001208DF80300684600F079FD012182480B
:100C400001F023F800BF02E080490C55641CFF2C22
:100C5000FADB06B010BD10B504467D49204601F010
:100C60003BF9208B10BD10B5044679490E31204662
:100C700001F032F90121204601F007F810BD10B54E
:100C800000207449086074496F4801F048F918B1B0
:100C900071496D4801F05EF96B4801F010F96F4A37
:100CA000811A904256D01ADC6D4AA0EB02019042A4
:100CB0007ED00DDC102849D0B0F5806F79D0B0F12E
:100CC000021F28D0A0F500304038002872D126E05D
:100CD000012970D007296FD03F29F7D17DE0614A03
:100CE000881A91427CD009DC022949D0A1F57F41C4
:100CF000FE39002973D0022974D16FE05A490844A3
:100D0000002866D0B0F5E00F61D0A0F5E80080388B
:100D1000002867D15CE04C48FFF79DFF63E04A483C
:100D200001F029F85149087008460078A02801D13F
:100D3000002008704FF40001434801F0CDF820B9BD
:100D40004FF48011404801F0C7F84CE03E48FFF7EF
:100D50008AFF48E03C48FFF77EFF3C48434A127850
:100D6000815C394801F005F840480078401C3F4953
:100D7000087008460078FF2801DD0020087032E086
:100D80004FF40001304801F0A7F820B94FF480116A
:100D90002D4801F0A1F82E49891C2B4801F09CF840
:100DA00032480078401CC0B2304A1070014605E05D
:100DB00010E007E016E00FE013E011E0224800F039
:100DC000D8FF10E02449204801F0C4F80BE00AE005
:100DD00009E008E007E002E005E004E003E002E0EB
:100DE00001E000E000BF00BF10BD10B5204916486B
:100DF00001F095F810BB1F49134801F090F8E8B9CD
:100E00001D49114801F08BF8C0B91C490E4801F08A
:100E100086F898B910490C4801F081F820B10E49C4
:100E2000094801F097F809E01549074801F077F8FB
:100E300020B94FF00121044801F071F810BD000005
:100E4000000C0140905F0100005400409C04002011
:100E5000020000108401214200040001820006000B
:100E600001000300020001008400F5FF4804002097
:100E70000080000100400001001000010008000196
:100E80000002000110B586B004460121042001F0E3
:100E9000F5F90121480401F0FEF90420ADF8140031
:100EA00018208DF8170003208DF8160005A9A74813
:100EB00000F006FD0820ADF8140004208DF817009E
:100EC00005A9A24800F0FCFC01940020ADF8080040
:100ED000ADF80A00ADF80C00ADF810000C20ADF82C
:100EE0000E004FF4806000F01DFC26208DF80000FD
:100EF00001208DF801008DF802008DF8030068468E
:100F000000F015FC01A9924801F05FFA012240F2BD
:100F100025518F4801F0F1FA01218D4801F0E1FAE5
:100F200006B010BD70B505460E4600240CE000BFAB
:100F30004021874801F0B0FB0028F9D0295D8448A2
:100F400001F03CFB601C84B2B442F0DB00BF4021E6
:100F50007F4801F0A1FB0028F9D070BD10B5024612
:100F60000B46002100BF07E0505C5C5CA04201D052
:100F7000002010BD481CC1B20629F5DB0120F8E7AE
:100F80001CB574A103C9CDE9000140F22551704898
:100F900001F098FB00287DD06D4801F013FBC4B22E
:100FA0006E480078002876D16D480078002848D136
:100FB000242C08D16B4801780078401C694A1070D5
:100FC000694844543DE068480078242839D1654890
:100FD0000078002835D0634801780078401C614AC9
:100FE00010706148445410460078062829D169469B
:100FF0005D48FFF7B3FF01281DD15C4908705849CF
:10100000087000205749087010E057485549097882
:10101000425C574801780078401C554B1870554881
:10102000425450480078401C4E4908704D480078A2
:101030000528EADB02E00020494908700020494900
:1010400008704A48007801286DD10D2C44D04848DA
:1010500001780078401C464A1070464844542C2CB5
:1010600005D145480078401C434908705BE0424880
:1010700000780A282FD2DFE800F02E0511121B1C81
:101080002E2E2E253D4801780078401C3B4A1070DA
:101090003B4801E059E040E044541CE000BF3948BF
:1010A00001780078401C374A10703748445412E0E9
:1010B00000BF364801780078401C344A107034482C
:1010C000445408E0334801780078401C314A1070DD
:1010D0003148445400BF26E00D202649244A1278A6
:1010E00088540A21234A22480078401C11540020C9
:1010F0002449087025490870264908701F4908705E
:101100001B490870194908701549087001201349D6
:10111000087000201849087005E000200F49087089
:1011200014481E4908600821094801F0B5FA012851
:1011300006D1074801F046FA0821054801F0B9FA3E
:1011400040F22551024801F0B4FA1CBD00080140EC
:101150000044004024475047474100005404002009
:101160005E0400205D040020570400205F0400207E
:1011700055040020EB050020560400204F040020F9
:10118000D70500204C0400209B0500204D040020C2
:10119000AF0500204E040020C305002050040020AD
:1011A00010B586B004460121C80401F074F801218D
:1011B000102001F063F80C20ADF8140001208DF828
:1011C000160010208DF8170005A9604800F078FB84
:1011D0004FF48060ADF8140018208DF8170003203C
:1011E0008DF8160005A9594800F06AFB4FF400601D
:1011F000ADF8140004208DF8170005A9534800F03D
:101200005FFB4FF4806000F08DFA34208DF8000011
:1012100003208DF8020001208DF80300684600F0DD
:1012200086FA01940020ADF80800ADF80A00ADF888
:101230000C00ADF810000C20ADF80E0001A94448D8
:1012400001F0C3F8012240F22551414801F055F95F
:1012500001213F4801F045F940213D4801F029FABC
:1012600006B010BD10B504460421384800F0D5FB87
:101270000821364800F0D1FB012000F000FA214699
:10128000334801F09BF900BF8021314801F004FA96
:101290000028F9D0012000F0F2F904212B4800F0D9
:1012A000BEFB0821294800F0BAFB10BD70B5054609
:1012B0000E460421254800F0B0FB0821234800F029
:1012C000ACFB012000F0DBF900240CE000BF402162
:1012D0001F4801F0E1F90028F9D0295D1C4801F010
:1012E0006DF9601C84B2B442F0DB00BF40211848A5
:1012F00001F0D2F90028F9D0012000F0C0F9042152
:10130000124800F08CFB0821104800F088FB70BDEB
:1013100010B540F225510E4801F0D4F918B10C482F
:1013200001F050F9C4B20821094801F0B5F90128CB
:1013300006D1074801F046F90821054801F0B9F93E
:1013400040F22551024801F0B4F910BD00100140EF
:10135000004C004010B586B004460121880400F01E
:101360009AFF0121082000F089FF0121102000F0E0
:1013700085FF3020ADF8140001208DF816001020F4
:101380008DF8170005A9924800F09AFA4FF4806092
:10139000ADF8140018208DF8170003208DF8160002
:1013A00005A98C4800F08CFA4FF40060ADF81400E9
:1013B00004208DF8170005A9864800F081FA4FF443
:1013C000A06000F0AFF927208DF8000003208DF811
:1013D000020001208DF80300684600F0A8F901948E
:1013E0000020ADF80800ADF80A00ADF80C00ADF82B
:1013F00010000C20ADF80E0001A9774800F0E5FFC1
:10140000012240F22551744801F077F80121724819
:1014100001F067F84021704801F04BF906B010BDAB
:1014200010B5044610216A4800F0F7FA20216848F8
:1014300000F0F3FA012000F022F92146664801F09D
:10144000BDF800BF8021644801F026F90028F9D0DA
:10145000012000F014F910215D4800F0E0FA20218D
:101460005B4800F0DCFA10BD70B505460E46102151
:10147000574800F0D2FA2021554800F0CEFA01205A
:1014800000F0FDF800240CE000BF4021524801F0BC
:1014900003F90028F9D0295D4F4801F08FF8601C4E
:1014A00084B2B442F0DB00BF40214B4801F0F4F8B5
:1014B0000028F9D0012000F0E2F81021444800F0A3
:1014C000AEFA2021424800F0AAFA70BD10B540F2F1
:1014D0002551414801F0F6F8002865D03E4801F05A
:1014E00071F8C4B23D483E49097844543C480078FC
:1014F000401C3B490870394800780A280DD108463D
:101500000078092809D135488179407901EB00201C
:1015100034490860002032490870304800780B28B0
:101520000DD12F480078072809D12C480179C078BF
:1015300001EB00202C490860002029490870274849
:101540000078032830D12648007811282CD1234870
:101550000179C07801EB0020244908601F48817997
:10156000407901EB0020224908601C48017AC079CB
:1015700001EB00201F4908601848817A407A01EB8E
:1015800000201D4908601548017BC07A01EB00204E
:101590001A4908601148817B407B01EB0020184903
:1015A000086000200E49087008210B4801F074F80B
:1015B000012806D1084801F005F80821064801F085
:1015C00078F840F22551044801F073F810BD00008E
:1015D00000100140000C014000480040B30600200C
:1015E0008004002060040020640400206C040020BB
:1015F0006804002070040020740400207804002097
:101600007C04002010B56FF0040000F0DAF82E48DA
:1016100000682E49B0FBF1F02D49087008460078AB
:1016200000EB4001C1EBC0104FF6FF7101EAC000B2
:101630002849088010BD0146254A12784A434FF0D8
:10164000E0235A6100229A611A46126942F00102AF
:101650001A6100BF4FF0E022106900F001021AB1D8
:1016600000F48032002AF5D04FF0E022126922F017
:1016700001024FF0E0231A6100229A61704701468F
:10168000144A12884A434FF0E0235A6100229A61BB
:101690001A46126942F001021A6100BF4FF0E022BF
:1016A000106900F001021AB100F48032002AF5D06E
:1016B0004FF0E022126922F001024FF0E0231A619C
:1016C00000229A61704700001800002000127A0082
:1016D000820400208404002010B54FF4A06000F0C4
:1016E00021F810BD0948804709480047FEE7FEE79A
:1016F000FEE7FEE7FEE7FEE7FEE7FEE7FEE7FEE7C2
:1017000004480549054A064B704700009708000841
:101710003101000838070020380D0020380900206A
:101720003809002031490143314A1160704770B5D2
:10173000002100230F22C47804B32D4C246804F444
:10174000E064C4F5E064210AC1F10403CA404478AE
:1017500004FA03F18478144021430901254C0678EA
:10176000A155047804F01F050124AC4005786D11E3
:10177000AD0005F1E025C5F8004109E0047804F06A
:101780001F050124AC401C4D0678761145F8264013
:1017900070BD1A4A0A400243154B1B1F1A6070475E
:1017A00039B1134A121D12680243114B1B1D1A60F6
:1017B00006E00F4A121D126882430D4B1B1D1A6072
:1017C0007047042808D14FF0E021096941F0040175
:1017D0004FF0E022116107E04FF0E021096921F0AC
:1017E00004014FF0E0221161704700000000FA058B
:1017F0000CED00E000E400E080E100E080FFFF1F6E
:1018000010B50446CC48844208D10121042000F0E0
:101810004FFD0021042000F04BFD46E0C748844204
:1018200008D10121082000F043FD0021082000F02C
:101830003FFD3AE0C248844208D10121102000F067
:1018400037FD0021102000F033FD2EE0BD4884421A
:1018500008D10121202000F02BFD0021202000F0E4
:1018600027FD22E0B848844208D10121402000F041
:101870001FFD0021402000F01BFD16E0B34884420C
:1018800008D10121802000F013FD0021802000F00C
:101890000FFD0AE0AE48844207D10121801500F017
:1018A00007FD0021A01500F003FD10BD10B50121BA
:1018B000084600F0FDFC0021012000F0F9FC10BDFD
:1018C0002DE9F041024600250026002000230024D7
:1018D000002791F803C00CF00F0591F803C00CF03D
:1018E000100CBCF1000F03D091F802C04CEA0505C2
:1018F00091F800C0BCF1000F31D0146800202BE03B
:101900004FF0010C0CFA00F3B1F800C00CEA03062A
:101910009E4220D183004FF00F0C0CFA03F7BC431A
:1019200005FA03FC4CEA040491F803C0BCF1280F4B
:1019300006D14FF0010C0CFA00FCC2F814C00AE00A
:1019400091F803C0BCF1480F05D14FF0010C0CFA1F
:1019500000FCC2F810C0401C0828D1D31460B1F8B4
:1019600000C0BCF1FF0F34DD546800202EE000F110
:10197000080C4FF0010808FA0CF3B1F800C00CEAAB
:1019800003069E4221D183004FF00F0C0CFA03F79F
:10199000BC4305FA03FC4CEA040491F803C0BCF113
:1019A000280F05D100F1080C08FA0CF8C2F81480D1
:1019B00091F803C0BCF1480F07D100F1080C4FF0BB
:1019C000010808FA0CF8C2F81080401C0828CED391
:1019D0005460BDE8F0814FF6FF71018002218170F3
:1019E0000421C17070470246002093680B400BB180
:1019F000012000E0002070470146886880B27047EF
:101A000002460020D3680B400BB1012000E000200B
:101A100070470146C86880B27047016170474161F4
:101A200070470AB1016100E041617047C1607047D1
:101A30004FF480320A4382618161826182698269E6
:101A4000704702460020434B18684FF680731840D9
:101A500040EA021008433F4B186070473E49C86196
:101A60007047F0B50A46002300240021002500F04D
:101A70000046B6F1004F02D1364EF16901E0354E15
:101A80007168C0F3034583B200F44016B6F5401FF9
:101A900008D121F070612F4E766826F070662D4FC8
:101AA0007E6012E000F48016B6F5801F06D1032692
:101AB00006FA05F4A14341F0706106E0460D3601D7
:101AC00003FA06F6B14341F0706122B1460D3601CA
:101AD00003FA06F6314300F00046B6F1004F02D19A
:101AE0001C4EF16101E01B4E7160F0BD30B500226B
:101AF0008B071C0F0F2303FA04F2164B08338C10CC
:101B000053F824309343134C08348D1044F8253097
:101B100023468C1053F824308C07240F00FA04F469
:101B200023430C4C08348D1044F8253030BD0A494D
:101B3000DC3108607047000000080140000C0140E3
:101B4000001001400014014000180140001C014039
:101B500000200140000001400000204210B5044672
:101B6000F748844209D10121480500F0AEFB00216D
:101B70004FF4001000F0A9FB08E00121880500F0F7
:101B8000A4FB00214FF4800000F09FFB10BD2DE965
:101B9000F04385B004460D460026B1460427DFF821
:101BA000A483A6884FF6C0700640684600F0F9FA94
:101BB000DDF80880E448B8FBF0F01FFA80F946EA47
:101BC0000906A68020884FF6FE7108402080002676
:101BD000DE49286888420CD828684000B8FBF0F03D
:101BE00087B2042F00DA04273E4309F10100208464
:101BF00027E0E8884BF6FF71884206D1286800EBA1
:101C00004000B8FBF0F087B209E0286800EBC001A3
:101C100001EB0010B8FBF0F087B247F48047C7F340
:101C20000B0008B947F0010747F4004006434FF4A2
:101C3000967009FB00F04FF47A7190FBF1F0401CB4
:101C40002084A683208840F00100208026884FF65B
:101C5000F5300640A8886989084306432680A8898C
:101C600029890843208105B0BDE8F08341F288311D
:101C70000160002181804BF6FF71C180002101814C
:101C800041814FF480418181704721B1028842F047
:101C90000102028004E002884FF6FE731A400280BF
:101CA000704721B1828842F40062828004E0828819
:101CB0004FF2FF731A408280704721B1828842F44C
:101CC0008052828004E082884EF6FF731A40828040
:101CD000704721B1028842F48072028004E00288D9
:101CE0004FF6FF631A400280704721B1028842F428
:101CF0000072028004E002884FF6FF531A4002800F
:101D0000704721B1028842F48062028004E00288B8
:101D10004FF6FF331A40028070470A46002181893E
:101D20004FF60173194002F0FE0319438181704799
:101D300021B1828942F00102828104E082894FF65A
:101D4000FE731A408281704721B1028842F040023E
:101D5000028004E002884FF6BF731A400280704789
:101D60001AB183880B43838002E083888B4383808E
:101D70007047018270470146088AC0B2704712B1AD
:101D800041F0010102E04FF6FE73194001827047F5
:101D900008B5024600200090009200980844009088
:101DA0000098008808BD21B1028842F400420280F8
:101DB00003E00288C2F30E0202807047B1F5006FA3
:101DC00004D1028842F40062028004E002884FF2EB
:101DD000FF731A4002807047B1F5005F04D102889A
:101DE00042F40052028004E002884DF6FF731A406C
:101DF0000280704721B1028842F48052028004E0E0
:101E000002884EF6FF731A4002807047B1F5006FEA
:101E100004D1028842F40062028004E002884FF29A
:101E2000FF731A400280704721B1028842F02002FD
:101E3000028004E002884FF6DF731A400280704788
:101E40000146088B0012704721B1028842F010024F
:101E5000028004E002884FF6EF731A400280704758
:101E600021B9028842F08002028004E002884FF625
:101E70007F731A4002807047B1F5804F05D0828B86
:101E80004BF6FF731A40828303E0828B42F4804258
:101E90008283704770B5024600240025002300208D
:101EA000958A138B1B0445EA030626F07F4404EA57
:101EB00001068E4201D1012000E0002070BD10B566
:101EC00001460020002300228B8A0A8B120443EA79
:101ED000020424F07F4010BD0CB502460020002310
:101EE0000193009300920B0F019321F07F41019B1E
:101EF0001BB1009B1433009303E0090C009B1833C3
:101F00000093009B1B680B400BB1012000E00020F8
:101F10000CBD002221F07F42D3438382704730B54D
:101F2000024600200023948801F0E06504EA15438E
:101F300021F07F41948A0C4054B14BB1012008E05C
:101F40000054004000127A0040420F00A0860100B9
:101F5000002030BD002221F07F42D34383827047AE
:101F60000E49086070470D49486070470B4988600A
:101F700070474AF6AA200949086070474CF6CC40E1
:101F800006490860704701460020044AD2680A40AA
:101F90000AB1012000E0002070470000003000403E
:101FA000DF48006840F00100DD49086008464068ED
:101FB000DC490840DA49486008460068DA490840C8
:101FC000D74908600846006820F480200860084669
:101FD000406820F4FE0048604FF41F00886070479E
:101FE000CF49096821F48031CD4A11601146096852
:101FF00021F480211160B0F5803F03D0B0F5802F2F
:102000000ED106E0C649096841F48031C44A116026
:1020100007E0C349096841F4A021C14A116000E00A
:1020200000BF00BF704710B501460022002300200A
:102030004A11012A02D1BA4C236806E0022A02D1D1
:10204000B74C236A01E0B64C636A01F01F02012419
:1020500094401C400CB1012000E0002010BD38B5B8
:10206000002000900024002500BF3120FFF7DBFF97
:1020700005460098401C00900098B0F5A06F01D074
:10208000002DF2D03120FFF7CEFF08B1012400E08F
:102090000024204638BD01460020A14A106820F0E7
:1020A000F80040EAC10010607047A049086070471E
:1020B000024600209A4B586820F47C1042EA010343
:1020C0001843974B58607047984908667047014617
:1020D0000020934A506820F0030008435060704786
:1020E0008F48406800F00C007047014600208C4A81
:1020F000506820F0F000084350607047014600200F
:10210000874A506820F4E0600843506070470146F9
:102110000020834A506820F4605040EAC1005060BB
:10212000704729B17E4A527A02437D4B5A7204E0CD
:102130007B4A527A82437A4B5A7270477B49D83134
:102140000860704701460020754A506820F44040FE
:102150000843506070470021714A20321170704A64
:1021600082F82010012802D004280AD104E00121BD
:102170006B4A2032117005E00521694A2032117046
:1021800000E000BF00BF70476949086070476449BC
:10219000096A0143624A116270476549443908601F
:1021A000704730B500210022002400235C4D6D688B
:1021B00005F00C0121B1042905D0082923D105E03F
:1021C0005C4D056022E05B4D05601FE0544D6D687D
:1021D00005F47012524D6D6805F48034022505EB4C
:1021E00092421CB9544D554305600BE04C4D6D684F
:1021F00005F400351DB1504D5543056002E04D4DCD
:102200005543056002E04B4D056000BF00BF444DE3
:102210006D6805F0F0010909484D6B5C0568DD400B
:1022200045603F4D6D6805F4E061090A434D6B5C04
:102230004568DD4085603A4D6D6805F46051C90A16
:102240003E4D6B5C4568DD40C560354D6D6805F4FD
:102250004041890B3A4D6B5CC568B5FBF3F50561F0
:1022600030BD29B12E4A526902432D4B5A6104E018
:102270002B4A526982432A4B5A61704729B1284A36
:1022800092690243264B9A6104E0254A926982438F
:10229000234B9A61704729B1214AD2690243204BEE
:1022A000DA6104E01E4AD26982431D4BDA6170474D
:1022B00029B11B4AD2680243194BDA6004E0184A7C
:1022C000D2688243164BDA60704729B1144A12690A
:1022D0000243134B1A6104E0114A12698243104B06
:1022E0001A61704712494039086070470F49C86445
:1022F00070470B49C87170470948406A40F08070C8
:1023000007494862704701460020054A92680A4022
:102310000AB1012000E0002070470149887270472F
:10232000001002400000FFF8FFFFF6FE00004242EE
:102330008004424200127A0000093D008604002019
:102340009604002010B50446FB48844209D10121BF
:102350008803FFF7ADFF00214FF48040FFF7A8FF8F
:1023600032E0F648844209D101214804FFF7ADFF6D
:1023700000214FF40030FFF7A8FF25E0F048844229
:1023800009D101218804FFF7A0FF00214FF480202C
:10239000FFF79BFF18E0EB48844209D10121C804F4
:1023A000FFF793FF00214FF40020FFF78EFF0BE0B3
:1023B000E548844208D101210805FFF786FF002186
:1023C0004FF48010FFF781FF10BD2DE9F04786B074
:1023D00005460E460024A24600BFA1460027B0894C
:1023E00000B100BF2F462C8A4CF6FF700440F088E5
:1023F00004432C82AC894EF6F3100440B088318936
:102400000843718908430443AC81AC8A4FF6FF400E
:102410000440B0890443AC8201A8FFF7C2FEC6485D
:10242000874202D1DDF810A001E0DDF80CA0A889F8
:1024300000F4004040B10AEBCA0000EB0A1031681A
:102440004900B0FBF1F807E00AEBCA0000EB0A1004
:1024500031688900B0FBF1F86420B8FBF0F00401AA
:102460002009642101FB1089A88900F4004040B1D3
:10247000322000EBC900B0FBF1F000F0070004438C
:1024800008E0322000EB09106421B0FBF1F000F00D
:102490000F0004432C8106B0BDE8F0874FF41651BD
:1024A000016000218180C18001810C2141810021D6
:1024B0008181704710B502460020108A4FF2FF0359
:1024C00018400B884C8823438C882343CC882343B3
:1024D0001843108210BD0021018041808180C1809D
:1024E000704721B1828942F40052828104E08289DE
:1024F0004DF6FF731A4082817047F0B50346002401
:1025000000260025002040F66A17B94200D100BF1E
:102510001846C1F3421401F01F06012707FA06F519
:10252000012C01D10C3004E0022C01D1103000E06C
:1025300014301AB107682F43076002E00768AF4301
:102540000760F0BD1AB1838A0B43838202E0838A5D
:102550008B4383827047028A4FF6F0731A400282DF
:10256000028A0A430282704782894FF2FF731A403F
:10257000828182890A438281704721B1828942F037
:102580000202828104E082894FF6FD731A40828143
:102590007047028A4FF6DF731A400282028A0A43AA
:1025A0000282704721B1028A42F48042028204E032
:1025B000028A4BF6FF731A4002827047C1F3080289
:1025C0008280704701468888C0F30800704781897F
:1025D00041F0010181817047028BD2B20283028BEC
:1025E00042EA012202837047028B02F47F42028397
:1025F000028B0A430283704721B1828A42F0200293
:10260000828204E0828A4FF6DF731A40828270472A
:1026100021B1828A42F01002828204E0828A4FF65F
:10262000EF731A408282704721B1828A42F0080219
:10263000828204E0828A4FF6F7731A4082827047E2
:1026400021B1828942F40042828103E08289C2F38F
:102650000E028281704721B1828A42F40062828236
:1026600004E0828A4FF2FF731A4082827047828AA6
:102670004FF6FB731A408282828A0A438282704735
:1026800021B1828A42F00202828204E0828A4FF6FD
:10269000FD731A408282704702460020B1F5007F28
:1026A00000D100BF13880B400BB1012000E00020D7
:1026B000704701F40072B2F5007F00D100BFCA4339
:1026C0000280704770B502460024002300250020D8
:1026D00040F66A16B14200D100BFC1F3421501F0C5
:1026E0001F03012606FA03F3012D02D19689334018
:1026F00006E0022D02D1168A334001E0968A33406B
:102700000C12012606FA04F41688344013B10CB1F9
:10271000012000E0002070BD10B50022002340F62B
:102720006A14A14200D100BF0A1201249440A3B24E
:10273000DC43048010BD000000380140004400402C
:1027400000480040004C0040005000407047704777
:102750007047754600F028F8AE46050069465346B6
:1027600020F00700854618B020B5FEF7C9FFBDE888
:1027700020404FF000064FF000074FF000084FF0E8
:10278000000B21F00701AC46ACE8C009ACE8C00979
:10279000ACE8C009ACE8C0098D4670470446AFF309
:1027A00000802046FDF72BFD00487047D40600202E
:1027B00001491820ABBEFEE726000200704700006A
:1027C00024474E4747412C3030303030312C3331A4
:1027D00031322E3531383537362C4E2C31323132BC
:1027E000372E3930313235312C452C312C382C31C3
:1027F0002C302C4D2C2D33322C4D2C332C302A34B4
:10280000420D0A0D0A0000002828000800000020E0
:102810009C0400006C010008602B00089C04002050
:102820009C080000C801000881F3E80384A24A0460
:10283000400901020304060708092A0A282D02C5D7
:10284000700B0810080184A0030301F45D068424C2
:10285000A501220162801451020512A219100C1266
:10286000D10F5A1E12441BA306101163013B120C18
:1028700022201203420A140202011B0A0A10111834
:1028800016504D322E35A3BA203534A601CC672F11
:102890006D33504D3130105C2037301172F70938EC
:1028A000642DCEC2B6C853480B32322E33A1E62077
:1028B00020CAAA10080B3933332E3525524820DCA4
:1028C000C3C13DB7E7CBD94D380C2E30206D2F73E7
:1028D00020B7E7CFF26D080A393730A1E320202076
:1028E0007B835D2DD4EBC9F94D701C35322E3564D8
:1028F000622020B4F3C6F8D1B9A3BA3130312E33F7
:102900004B5061FAD25A0938641DBEADB6C864385E
:102910000C3131372E3536452020CEB3101F3339D8
:102920002E30354EC11BBEC96419031017C1C081BA
:10293000C1400101C3C003800241C201C6C006807C
:102940000741C7101005C1C581C4400401CCC00CAB
:10295000800D41CD10080FC1CF81CE400E10180A56
:10296000C1CA81CB400B01C9C009800841C801D848
:10297000C018801941D910081BC1DB81DA401A1038
:10298000101EC1DE81DF401F01DDC01D801C41DC47
:10299000101814C1D481D5401501D7C01780164135
:1029A000D601D2C012801341D3101011C1D181D0F1
:1029B000401001F0C030803141F1100833C1F38183
:1029C000F24032101036C1F681F7403701F5C035BC
:1029D000803441F410183CC1FC81FD403D01FFC032
:1029E0003F803E41FE01FAC03A803B41FB1008396E
:1029F000C1F981F84038101828C1E881E94029015F
:102A0000EBC02B802A41EA01EEC02E802F41EF104F
:102A1000102DC1ED81EC402C01E4C024802541E55E
:102A2000100827C1E781E64026101822C1E281E3A1
:102A3000402301E1C021802041E001A0C06080610D
:102A400041A1100863C1A381A24062101066C1A613
:102A500081A7406701A5C065806441A410186CC1BE
:102A6000AC81AD406D01AFC06F806E41AE01AAC0B8
:102A70006A806B41AB100869C1A981A84068101831
:102A800078C1B881B9407901BBC07B807A41BA0175
:102A9000BEC07E807F41BF10107DC1BD81BC407C27
:102AA00001B4C074807541B5100877C1B781B640D4
:102AB00076101072C1B281B3407301B1C0718070E1
:102AC00041B0101850C190819140510193C0538082
:102AD0005241920196C05680574197101055C195AA
:102AE00081944054019CC05C805D419D10085FC191
:102AF0009F819E405E10185AC19A819B405B01994C
:102B0000C059805841980188C048804941891008BF
:102B10004BC18B818A404A10104EC18E818F404F2D
:102B2000018DC04D804C418C101844C1848185407A
:102B3000450187C047804641860182C042804341AB
:102B400083800841C1818180404013C0270236083C
:102B50002D010203040418080607080902040646AA
:0400000508000131BD
:00000001FF
