:020000040800F2
:10000000F8070020710A00081D0200081F020008FE
:1000100023020008270200082B020008000000004D
:100020000000000000000000000000002F02000897
:100030003102000800000000330200083502000809
:100040008B0A00088B0A00088B0A00088B0A00083C
:100050008B0A00088B0A00088B0A00088B0A00082C
:100060008B0A00088B0A00088B0A00088B0A00081C
:100070008B0A00088B0A00088B0A00088B0A00080C
:100080008B0A00088B0A00088B0A00088B0A0008FC
:100090008B0A00088B0A00088B0A00088B0A0008EC
:1000A0008B0A00088B0A00088B0A00088B0A0008DC
:1000B0008B0A00088B0A00088B0A0008FF0400085E
:1000C0006B0600088B0A00088B0A00088B0A0008E0
:1000D0008B0A0008E70700088B0A0008F9010008EE
:1000E0008B0A00088B0A00088B0A00088B0A00089C
:1000F0008B0A00088B0A00088B0A00088B0A00088C
:100100008B0A00088B0A00088B0A00088B0A00087B
:100110008B0A00088B0A00088B0A00088B0A00086B
:100120008B0A00088B0A00088B0A00088B0A00085B
:1001300000F002F800F03AF80AA090E8000C8244BF
:100140008344AAF10107DA4501D100F02FF8AFF29C
:10015000090EBAE80F0013F0010F18BFFB1A43F0A5
:1001600001031847A8190000C8190000103A24BF5D
:1001700078C878C1FAD8520724BF30C830C144BF0C
:1001800004680C607047000000230024002500264E
:10019000103A28BF78C1FBD8520728BF30C148BFEA
:1001A0000B6070471FB51FBD10B510BD01F077FC87
:1001B0001146FFF7F7FF00F008F801F095FC03B4D3
:1001C000FFF7F2FF03BC01F099FC00F0E1FB00F047
:1001D00049FC4FF4165000F049FB0BE0012080F37E
:1001E000108800BF00BF002080F3108800BF0A20E5
:1001F00000F00BFCF2E7000010B5002440F225519E
:100200000D4801F005FC28B10B4801F081FBC4B298
:100210000A480460022000F0F8FB10BD704700BFE0
:10022000FEE700BFFEE700BFFEE700BFFEE7704746
:1002300070477047704700000048004014000020DD
:100240000CB50020019000906C48006840F48030AC
:100250006A49086000BF6948006800F400300090F7
:100260000198401C0190009818B90198B0F5A06F52
:10027000F1D16248006800F4003010B10120009014
:1002800001E0002000900098012843D15C480068FC
:1002900040F010005A4908600846006820F003004A
:1002A00008600846006840F0020008605348406853
:1002B000524948600846406848600846406840F433
:1002C000806048600846406820F47C10486008461A
:1002D000406840F4E81048600846006840F08070CC
:1002E000086000BF4548006800F000700028F9D0A1
:1002F0004248406820F00300404948600846406892
:1003000040F00200486000BF3C48406800F00C002C
:100310000828F9D10CBD10B5FFF792FF10BD10B53C
:100320003648006840F001003449086008464068DB
:10033000344908403149486008460068324908405D
:100340002E4908600846006820F4802008600846AE
:10035000406820F4FE0048604FF41F008860FFF7FB
:10036000DAFF4FF000602949086010BD10B5002188
:1003700000200022214B5B6803F00C0121B104290D
:1003800006D0082928D107E0214B224C236027E022
:100390001F4B204C236023E0184B5B6803F4701064
:1003A000164B5B6803F48032022303EB904022B9C2
:1003B000194B4343174C23600DE0104B5B6803F46B
:1003C000003323B1144B4343124C236003E0104B22
:1003D0004343104C236003E00D4B0E4C236000BFE1
:1003E00000BF064B5B68C3F303130C4CE15C094B85
:1003F0001B68CB40074C236010BD0000001002407A
:10040000002002400000FFF8FFFFF6FE08ED00E0CC
:1004100000127A000000002000093D0004000020C6
:1004200010B50346002002E00C5C1C54401C9042B6
:10043000FADB10BD10B586B000240121480501F09B
:10044000D0F80121082001F0BFF8C020ADF8140059
:1004500003208DF816001C208DF8170005A9984878
:1004600000F0F4FB974801900020ADF808004BF62F
:10047000FF70ADF80A003C20ADF80C004FF480602E
:10048000ADF80E000001ADF8100001A98E4800F093
:1004900044FD01224FF4E0618B4800F027FE1F204D
:1004A0008DF8000001208DF8010000208DF8020079
:1004B00001208DF80300684600F0FFFA0121824810
:1004C00000F0A9FD00BF02E080490C55641CFF2C20
:1004D000FADB06B010BD10B504467D49204600F099
:1004E000C1FE208B10BD10B5044679490E3120465F
:1004F00000F0B8FE0121204600F08DFD10BD10B5C2
:1005000000207449086074496F4800F0CEFE18B1AD
:1005100071496D4800F0E4FE6B4800F096FE6F4AAA
:10052000811A904256D01ADC6D4AA0EB020190422B
:100530007ED00DDC102849D0B0F5806F79D0B0F1B5
:10054000021F28D0A0F500304038002872D126E0E4
:10055000012970D007296FD03F29F7D17DE0614A8A
:10056000881A91427CD009DC022949D0A1F57F414B
:10057000FE39002973D0022974D16FE05A4908442A
:10058000002866D0B0F5E00F61D0A0F5E800803813
:10059000002867D15CE04C48FFF79DFF63E04A48C4
:1005A00000F0AFFD5149087008460078A02801D13D
:1005B000002008704FF40001434800F053FE20B9BA
:1005C0004FF48011404800F04DFE4CE03E48FFF7EC
:1005D0008AFF48E03C48FFF77EFF3C48434A1278D8
:1005E000815C394800F08BFD40480078401C3F4951
:1005F000087008460078FF2801DD0020087032E00E
:100600004FF40001304800F02DFE20B94FF4801166
:100610002D4800F027FE2E49891C2B4800F022FEB1
:1006200032480078401CC0B2304A1070014605E0E4
:1006300010E007E016E00FE013E011E0224800F0C0
:100640005EFD10E02449204800F04AFE0BE00AE07D
:1006500009E008E007E002E005E004E003E002E072
:1006600001E000E000BF00BF10BD10B520491648F2
:1006700000F01BFE10BB1F49134800F016FEE8B93E
:100680001D49114800F011FEC0B91C490E4800F088
:100690000CFE98B910490C4800F007FE20B10E4935
:1006A000094800F01DFE09E01549074800F0FDFD6E
:1006B00020B94FF00121044800F0F7FD10BD000003
:1006C000000C0140905F0100005400403400002005
:1006D0000200001084012142000400018200060093
:1006E00001000300020001008400F5FF1800002053
:1006F000008000010040000100100001000800011E
:100700000002000110B586B00446012144F2040045
:1007100000F05AFF4FF40070ADF8140003208DF87C
:10072000160018208DF8170005A9464800F08EFA2B
:100730004FF48060ADF8140004208DF8170005A96F
:10074000404800F083FA4FF4806000F0B1F92520B2
:100750008DF8000000208DF801008DF802000120C6
:100760008DF80300684600F0A8F901940020ADF868
:100770000800ADF80A00ADF80C00ADF810000C2030
:10078000ADF80E0001A9304800F0C5FF012240F28B
:1007900025512D4801F057F801212B4801F047F869
:1007A00006B010BD70B505460E4600240CE000BF33
:1007B0004021254801F016F90028F9D0295D22488A
:1007C00001F0A2F8601C84B2B442F0DB00BF40210B
:1007D0001D4801F007F90028F9D04FF400711B48BB
:1007E00000F0E3FA70BD30B599B0002440F2255115
:1007F000154801F00DF980B1134801F089F8C5B230
:10080000642C04DA0DF80450601CC4B205E06422C4
:1008100069460F48FFF704FE002408210A4801F04A
:10082000E1F8012806D1084801F072F808210648CD
:1008300001F0E5F840F22551034801F0E0F819B065
:1008400030BD0000000801400038014000100140A8
:1008500033010020002106E0002101E04A1CD1B252
:100860000229FBDB401E0028F6D1704710B586B088
:1008700004460121880400F0B4FE0121082000F0A4
:10088000A3FE0121102000F09FFE3020ADF81400DF
:1008900001208DF8160010208DF8170005A93948A1
:1008A00000F0D4F94FF48060ADF8140018208DF8F2
:1008B000170003208DF8160005A9334800F0C6F98B
:1008C0004FF40060ADF8140004208DF8170005A95E
:1008D0002D4800F0BBF94FF4E06000F0E9F8272064
:1008E0008DF8000003208DF8020001208DF8030030
:1008F000684600F0E2F801940020ADF80800ADF879
:100900000A00ADF80C00ADF810000C20ADF80E0098
:1009100001A91E4800F0FFFE012240F225511B48AC
:1009200000F091FF0121194800F081FF4021174894
:1009300001F065F806B010BD10B50446102111484D
:1009400000F031FA20210F4800F02DFA41F28830F2
:10095000FFF780FF21460D4800F0D6FF00BF802141
:100960000A4801F03FF80028F9D041F28830FFF73B
:1009700071FF1021034800F018FA2021014800F00F
:1009800014FA10BD00100140000C01400048004066
:1009900010B56FF0040000F0DAF82E4800682E4918
:1009A000B0FBF1F02D4908700846007800EB4001DB
:1009B000C1EBC0104FF6FF7101EAC0002849088062
:1009C00010BD0146254A12784A434FF0E0235A6190
:1009D00000229A611A46126942F001021A6100BFB0
:1009E0004FF0E022106900F001021AB100F48032E9
:1009F000002AF5D04FF0E022126922F001024FF0F8
:100A0000E0231A6100229A6170470146144A128855
:100A10004A434FF0E0235A6100229A611A46126954
:100A200042F001021A6100BF4FF0E022106900F0AD
:100A300001021AB100F48032002AF5D04FF0E02212
:100A4000126922F001024FF0E0231A6100229A613C
:100A5000704700000000002000127A001A000020F9
:100A60001C00002010B54FF4A06000F021F810BD6C
:100A70000948804709480047FEE7FEE7FEE7FEE732
:100A8000FEE7FEE7FEE7FEE7FEE7FEE7044805496E
:100A9000054A064B704700001F030008310100089B
:100AA000F8010020F8070020F8030020F8030020D8
:100AB00031490143314A1160704770B5002100236C
:100AC0000F22C47804B32D4C246804F4E064C4F508
:100AD000E064210AC1F10403CA40447804FA03F136
:100AE0008478144021430901254C0678A1550478E7
:100AF00004F01F050124AC4005786D11AD0005F12F
:100B0000E025C5F8004109E0047804F01F05012440
:100B1000AC401C4D0678761145F8264070BD1A4A47
:100B20000A400243154B1B1F1A60704739B1134A24
:100B3000121D12680243114B1B1D1A6006E00F4A7A
:100B4000121D126882430D4B1B1D1A60704704284A
:100B500008D14FF0E021096941F004014FF0E02293
:100B6000116107E04FF0E021096921F004014FF025
:100B7000E0221161704700000000FA050CED00E072
:100B800000E400E080E100E080FFFF1F10B50446B4
:100B9000CC48844208D10121042000F02FFD00211F
:100BA000042000F02BFD46E0C748844208D1012113
:100BB000082000F023FD0021082000F01FFD3AE08E
:100BC000C248844208D10121102000F017FD002105
:100BD000102000F013FD2EE0BD48844208D1012111
:100BE000202000F00BFD0021202000F007FD22E076
:100BF000B848844208D10121402000F0FFFC0021C8
:100C0000402000F0FBFC16E0B348844208D10121EB
:100C1000802000F0F3FC0021802000F0EFFC0AE0CF
:100C2000AE48844207D10121801500F0E7FC002185
:100C3000A01500F0E3FC10BD10B50121084600F03E
:100C4000DDFC0021012000F0D9FC10BD2DE9F041B0
:100C5000024600250026002000230024002791F8EA
:100C600003C00CF00F0591F803C00CF0100CBCF1A0
:100C7000000F03D091F802C04CEA050591F800C0BE
:100C8000BCF1000F31D0146800202BE04FF0010CB4
:100C90000CFA00F3B1F800C00CEA03069E4220D122
:100CA00083004FF00F0C0CFA03F7BC4305FA03FC6A
:100CB0004CEA040491F803C0BCF1280F06D14FF0B0
:100CC000010C0CFA00FCC2F814C00AE091F803C051
:100CD000BCF1480F05D14FF0010C0CFA00FCC2F832
:100CE00010C0401C0828D1D31460B1F800C0BCF17A
:100CF000FF0F34DD546800202EE000F1080C4FF0A7
:100D0000010808FA0CF3B1F800C00CEA03069E4291
:100D100021D183004FF00F0C0CFA03F7BC4305FA06
:100D200003FC4CEA040491F803C0BCF1280F05D180
:100D300000F1080C08FA0CF8C2F8148091F803C00E
:100D4000BCF1480F07D100F1080C4FF0010808FA78
:100D50000CF8C2F81080401C0828CED35460BDE8BF
:100D6000F0814FF6FF710180022181700421C17072
:100D700070470246002093680B400BB1012000E051
:100D8000002070470146886880B270470246002004
:100D9000D3680B400BB1012000E0002070470146F2
:100DA000C86880B2704701617047416170470AB1FD
:100DB000016100E041617047C16070474FF48032CB
:100DC0000A43826181618261826982697047024659
:100DD0000020434B18684FF68073184040EA021019
:100DE00008433F4B186070473E49C8617047F0B5F3
:100DF0000A46002300240021002500F00046B6F139
:100E0000004F02D1364EF16901E0354E7168C0F3F2
:100E1000034583B200F44016B6F5401F08D121F017
:100E200070612F4E766826F070662D4F7E6012E05E
:100E300000F48016B6F5801F06D1032606FA05F4E5
:100E4000A14341F0706106E0460D360103FA06F653
:100E5000B14341F0706122B1460D360103FA06F646
:100E6000314300F00046B6F1004F02D11C4EF16153
:100E700001E01B4E7160F0BD30B500228B071C0FE6
:100E80000F2303FA04F2164B08338C1053F8243066
:100E90009343134C08348D1044F8253023468C10AE
:100EA00053F824308C07240F00FA04F423430C4C2D
:100EB00008348D1044F8253030BD0A49DC31086013
:100EC0007047000000080140000C01400010014084
:100ED0000014014000180140001C014000200140A6
:100EE000000001400000204210B50446F74884424B
:100EF00009D10121480500F08EFB00214FF40010BC
:100F000000F089FB08E00121880500F084FB002146
:100F10004FF4800000F07FFB10BD2DE9F04385B059
:100F200004460D460026B1460427DFF8A483A688B0
:100F30004FF6C0700640684600F0D9FADDF8088028
:100F4000E448B8FBF0F01FFA80F946EA0906A680EB
:100F500020884FF6FE71084020800026DE49286870
:100F600088420CD828684000B8FBF0F087B2042F04
:100F700000DA04273E4309F10100208427E0E888D5
:100F80004BF6FF71884206D1286800EB4000B8FBA1
:100F9000F0F087B209E0286800EBC00101EB001017
:100FA000B8FBF0F087B247F48047C7F30B0008B9ED
:100FB00047F0010747F4004006434FF4967009FBE1
:100FC00000F04FF47A7190FBF1F0401C2084A6836E
:100FD000208840F00100208026884FF6F53006403A
:100FE000A8886989084306432680A8892989084377
:100FF000208105B0BDE8F08341F288310160002115
:1010000081804BF6FF71C1800021018141814FF445
:1010100080418181704721B1028842F00102028043
:1010200004E002884FF6FE731A400280704721B137
:10103000828842F40062828004E082884FF2FF736B
:101040001A408280704721B1828842F480528280A7
:1010500004E082884EF6FF731A408280704721B107
:10106000028842F48072028004E002884FF6FF6337
:101070001A400280704721B1028842F40072028057
:1010800004E002884FF6FF531A400280704721B1F6
:10109000028842F48062028004E002884FF6FF3347
:1010A0001A40028070470A46002181894FF6017379
:1010B000194002F0FE0319438181704721B18289F2
:1010C00042F00102828104E082894FF6FE731A40E9
:1010D0008281704721B1028842F04002028004E020
:1010E00002884FF6BF731A40028070471AB1838896
:1010F0000B43838002E083888B43838070470182A7
:1011000070470146088AC0B2704712B141F0010130
:1011100002E04FF6FE7319400182704708B502469F
:1011200000200090009200980844009000980088E9
:1011300008BD21B1028842F40042028003E0028827
:10114000C2F30E0202807047B1F5006F04D102882D
:1011500042F40062028004E002884FF2FF731A40FA
:1011600002807047B1F5005F04D1028842F400525A
:10117000028004E002884DF6FF731A400280704737
:1011800021B1028842F48052028004E002884EF6C7
:10119000FF731A4002807047B1F5006F04D10288D6
:1011A00042F40062028004E002884FF2FF731A40AA
:1011B0000280704721B1028842F02002028004E0E0
:1011C00002884FF6DF731A40028070470146088B91
:1011D0000012704721B1028842F01002028004E040
:1011E00002884FF6EF731A400280704721B90288D7
:1011F00042F08002028004E002884FF67F731A40BA
:1012000002807047B1F5804F05D0828B4BF6FF739B
:101210001A40828303E0828B42F4804282837047CB
:1012200070B502460024002500230020958A138B08
:101230001B0445EA030626F07F4404EA01068E42B9
:1012400001D1012000E0002070BD10B50146002052
:10125000002300228B8A0A8B120443EA020424F042
:101260007F4010BD0CB5024600200023019300937F
:1012700000920B0F019321F07F41019B1BB1009B5A
:101280001433009303E0090C009B18330093009B78
:101290001B680B400BB1012000E000200CBD0022B8
:1012A00021F07F42D3438382704730B5024600204D
:1012B0000023948801F0E06504EA154321F07F41A2
:1012C000948A0C4054B14BB1012008E00054004016
:1012D00000127A0040420F00A0860100002030BDBD
:1012E000002221F07F42D34383827047DF480068A9
:1012F00040F00100DD49086008464068DC490840CC
:10130000DA49486008460068DA490840D749086069
:101310000846006820F4802008600846406820F4F1
:10132000FE0048604FF41F0088607047CF4909688D
:1013300021F48031CD4A11601146096821F48021E1
:101340001160B0F5803F03D0B0F5802F0ED106E0DC
:10135000C649096841F48031C44A116007E0C349B5
:10136000096841F4A021C14A116000E000BF00BF3C
:10137000704710B501460022002300204A11012ABF
:1013800002D1BA4C236806E0022A02D1B74C236A84
:1013900001E0B64C636A01F01F02012494401C4036
:1013A0000CB1012000E0002010BD38B500200090F5
:1013B0000024002500BF3120FFF7DBFF0546009821
:1013C000401C00900098B0F5A06F01D0002DF2D025
:1013D0003120FFF7CEFF08B1012400E000242046B1
:1013E00038BD01460020A14A106820F0F80040EA0C
:1013F000C10010607047A049086070470246002095
:101400009A4B586820F47C1042EA01031843974B2A
:101410005860704798490866704701460020934A13
:10142000506820F003000843506070478F484068C0
:1014300000F00C007047014600208C4A506820F0F4
:10144000F00008435060704701460020874A50680A
:1014500020F4E06008435060704701460020834A52
:10146000506820F4605040EAC1005060704729B1D4
:101470007E4A527A02437D4B5A7204E07B4A527A8A
:1014800082437A4B5A7270477B49D8310860704763
:1014900001460020754A506820F4404008435060DF
:1014A00070470021714A20321170704A82F8201072
:1014B000012802D004280AD104E001216B4A20321D
:1014C000117005E00521694A2032117000E000BF6B
:1014D00000BF70476949086070476449096A014361
:1014E000624A11627047654944390860704730B5F7
:1014F00000210022002400235C4D6D6805F00C01E2
:1015000021B1042905D0082923D105E05C4D0560EF
:1015100022E05B4D05601FE0544D6D6805F47012CC
:10152000524D6D6805F48034022505EB92421CB9DA
:10153000544D554305600BE04C4D6D6805F4003586
:101540001DB1504D5543056002E04D4D55430560BA
:1015500002E04B4D056000BF00BF444D6D6805F0D3
:10156000F0010909484D6B5C0568DD4045603F4D61
:101570006D6805F4E061090A434D6B5C4568DD4028
:1015800085603A4D6D6805F46051C90A3E4D6B5C4B
:101590004568DD40C560354D6D6805F44041890BF7
:1015A0003A4D6B5CC568B5FBF3F5056130BD29B1FB
:1015B0002E4A526902432D4B5A6104E02B4A52696C
:1015C00082432A4B5A61704729B1284A92690243E3
:1015D000264B9A6104E0254A92698243234B9A6123
:1015E000704729B1214AD2690243204BDA6104E0F5
:1015F0001E4AD26982431D4BDA61704729B11B4AEA
:10160000D2680243194BDA6004E0184AD268824378
:10161000164BDA60704729B1144A12690243134B22
:101620001A6104E0114A12698243104B1A61704733
:1016300012494039086070470F49C86470470B4928
:10164000C87170470948406A40F080700749486295
:10165000704701460020054A92680A400AB10120FD
:1016600000E0002070470149887270470010024076
:101670000000FFF8FFFFF6FE0000424280044242F5
:1016800000127A0000093D001E0000202E000020FC
:1016900010B50446FB48844209D101218803FFF7B5
:1016A000ADFF00214FF48040FFF7A8FF32E0F6487D
:1016B000844209D101214804FFF7ADFF00214FF416
:1016C0000030FFF7A8FF25E0F048844209D101214E
:1016D0008804FFF7A0FF00214FF48020FFF79BFF55
:1016E00018E0EB48844209D10121C804FFF793FFB9
:1016F00000214FF40020FFF78EFF0BE0E548844205
:1017000008D101210805FFF786FF00214FF4801062
:10171000FFF781FF10BD2DE9F04786B005460E4664
:101720000024A24600BFA1460027B08900B100BF37
:101730002F462C8A4CF6FF700440F08804432C821C
:10174000AC894EF6F3100440B088318908437189A2
:1017500008430443AC81AC8A4FF6FF400440B08993
:101760000443AC8201A8FFF7C2FEC648874202D1FB
:10177000DDF810A001E0DDF80CA0A88900F400401D
:1017800040B10AEBCA0000EB0A1031684900B0FB17
:10179000F1F807E00AEBCA0000EB0A103168890093
:1017A000B0FBF1F86420B8FBF0F0040120096421DB
:1017B00001FB1089A88900F4004040B1322000EB01
:1017C000C900B0FBF1F000F00700044308E032204C
:1017D00000EB09106421B0FBF1F000F00F000443AE
:1017E0002C8106B0BDE8F0874FF41651016000214E
:1017F0008180C18001810C2141810021818170475C
:1018000010B502460020108A4FF2FF0318400B88E3
:101810004C8823438C882343CC882343184310826D
:1018200010BD0021018041808180C180704721B1BD
:10183000828942F40052828104E082894DF6FF736E
:101840001A4082817047F0B5034600240026002527
:10185000002040F66A17B94200D100BF1846C1F314
:10186000421401F01F06012707FA06F5012C01D1E9
:101870000C3004E0022C01D1103000E014301AB119
:1018800007682F43076002E00768AF430760F0BDB9
:101890001AB1838A0B43838202E0838A8B4383825B
:1018A0007047028A4FF6F0731A400282028A0A4396
:1018B0000282704782894FF2FF731A4082818289C7
:1018C0000A438281704721B1828942F002028281FB
:1018D00004E082894FF6FD731A4082817047028AC4
:1018E0004FF6DF731A400282028A0A43028270476F
:1018F00021B1028A42F48042028204E0028A4BF65D
:10190000FF731A4002827047C1F308028280704759
:1019100001468888C0F308007047818941F00101C1
:1019200081817047028BD2B20283028B42EA01228C
:1019300002837047028B02F47F420283028B0A43C8
:101940000283704721B1828A42F02002828204E041
:10195000828A4FF6DF731A408282704721B1828AF1
:1019600042F01002828204E0828A4FF6EF731A403E
:101970008282704721B1828A42F00802828204E0AA
:10198000828A4FF6F7731A408282704721B18289AA
:1019900042F40042828103E08289C2F30E02828116
:1019A000704721B1828A42F40062828204E0828A16
:1019B0004FF2FF731A4082827047828A4FF6FB73A0
:1019C0001A408282828A0A438282704721B1828AC7
:1019D00042F00202828204E0828A4FF6FD731A40CE
:1019E0008282704702460020B1F5007F00D100BF1F
:1019F00013880B400BB1012000E00020704701F478
:101A00000072B2F5007F00D100BFCA430280704768
:101A100070B50246002400230025002040F66A1617
:101A2000B14200D100BFC1F3421501F01F030126EE
:101A300006FA03F3012D02D19689334006E0022D08
:101A400002D1168A334001E0968A33400C120126F7
:101A500006FA04F41688344013B10CB1012000E0FA
:101A6000002070BD10B50022002340F66A14A14288
:101A700000D100BF0A1201249440A3B2DC430480C9
:101A800010BD000000380140004400400048004004
:101A9000004C00400050004070477047704775464A
:101AA00000F028F8AE4605006946534620F00700CE
:101AB000854618B020B5FEF7E9FFBDE820404FF09D
:101AC00000064FF000074FF000084FF0000B21F028
:101AD0000701AC46ACE8C009ACE8C009ACE8C009F5
:101AE000ACE8C0098D4670470446AFF3008020463D
:101AF000FEF765FB00487047980100200149182057
:101B0000ABBEFEE726000200704700002C1B000859
:101B100000000020340000006C010008601B000879
:101B200034000020C40700008801000800A24A0415
:101B3000000000000000000001020304060708097D
:101B40000000000000000000000000000000010292
:101B50000304010203040607080902040608000042
:0400000508000131BD
:00000001FF
