:020000040800F2
:10000000A80D0020F1190008790800087B080008F5
:100010007F08000883080008870800080000000027
:100020000000000000000000000000008B08000835
:100030008D080008000000008F08000891080008E3
:100040000B1A00080B1A00080B1A00080B1A0008FC
:100050000B1A00080B1A00080B1A00080B1A0008EC
:100060000B1A00080B1A00080B1A00080B1A0008DC
:100070000B1A00080B1A00080B1A00080B1A0008CC
:100080000B1A00080B1A00080B1A00080B1A0008BC
:100090000B1A00080B1A00080B1A00080B1A0008AC
:1000A0000B1A00080B1A00080B1A00080B1A00089C
:1000B0000B1A00080B1A00080B1A00085B0D000849
:1000C000C70E00080B1A00080B1A00080B1A0008CC
:1000D0000B1A0008B71700085D100008A9150008E2
:1000E0000B1A00080B1A00080B1A00080B1A00085C
:1000F0000B1A00080B1A00080B1A00080B1A00084C
:100100000B1A00080B1A00080B1A00080B1A00083B
:10011000ED1300080B1A00080B1A00080B1A000850
:100120000B1A00080B1A00080B1A00080B1A00081B
:1001300000F002F800F05AF80AA090E8000C82449F
:100140008344AAF10107DA4501D100F04FF8AFF27C
:10015000090EBAE80F0013F0010F18BFFB1A43F0A5
:1001600001031847DC310000FC3100000A444FF065
:10017000000C10F8013B13F0070408BF10F8014B06
:100180001D1108BF10F8015B641E05D010F8016B4B
:10019000641E01F8016BF9D113F0080F1EBF10F8AF
:1001A000014BAD1C0C1B09D16D1E58BF01F801CBD2
:1001B000FAD505E014F8016B01F8016B6D1EF9D555
:1001C0009142D6D37047000000230024002500266A
:1001D000103A28BF78C1FBD8520728BF30C148BFAA
:1001E0000B6070471FB51FBD10B510BD02F05FFE5C
:1001F0001146FFF7F7FF00F01AF802F07DFE03B496
:10020000FFF7F2FF03BC02F081FE000010B545F2DB
:10021000555002F053FA062002F053FA40F63540EA
:1002200002F052FA02F053FA02F056FA10BD08B585
:10023000002401F06DFB01F0D5FBFFF7E7FF4FF461
:10024000965000F08DFE4FF4965001F0F1F84FF407
:10025000614001F013F84FF4165001F041FA01F03B
:10026000CDFA1E21FE4801F08FF84FF47A7001F0AC
:100270008CFB4FF47A7001F088FB4FF47A7001F038
:1002800084FB4FF47A7001F080FB4FF47A7001F038
:100290007CFBD4E20821F34801F054F94FF47A7062
:1002A00001F073FB4FF47A7001F06FFBEE48EF4BF7
:1002B000EF4AF0490090F048006800F070FCEA480E
:1002C0000078EE4981F84500E848007881F843005D
:1002D000E748007881F84200E648007881F841005C
:1002E000E148E24BE24AE3490090E548006800F04B
:1002F00056FCDD480078E14981F85500DB4800787C
:1003000081F85300DA48007881F85200D948007823
:1003100081F851005A21D94800F0B6FBD94908802C
:100320005A20D9490860D949D648008800F0E8FB2E
:10033000D749086000240CE0D448015DCF48D24A78
:1003400012688154D0480068401CCF490860601C86
:10035000C4B2CF4800688442EEDB5A20C749CA4A7B
:1003600012688854C8480068401CC749086008469D
:10037000008881B2C14801F007F84FF47A7001F0AB
:1003800004FB02F0A4F90821B64801F0DBF84FF4B1
:100390007A7001F0FAFA4FF47A7001F0F6FAB24B83
:1003A000B24AB349BB48006800F03FFCAE48007851
:1003B000B94981F84300AD48007881F84200AC4863
:1003C000007881F84100A84BA84AA949B3480068C1
:1003D00000F02BFCA4480078AF4981F85400A348F2
:1003E000007881F85300A248007881F852005C211F
:1003F000A94800F049FBA34908805C20A249086095
:10040000A249A048008800F07BFBA14908600024B5
:100410000CE09E48005DA0499B4A126888549A48A7
:100420000068401C98490860601CC4B29848006885
:100430008442EEDB5A209849934A126888549248C5
:100440000068401C904908600846008881B29248C4
:1004500000F09AFF02F03BF90821914801F072F890
:100460004FF47A7001F091FA08218E4801F06AF891
:100470004FF47A7001F089FA4FF47A7001F085FA3E
:1004800079487A4B7A4A7B4900908748006800F0A7
:1004900086FB75480078854981F8440073480078E8
:1004A00081F842007248007881F841007148007874
:1004B00081F840006C486D4B6D4A6E4900907C4855
:1004C000006800F06CFB68480078784981F85400B7
:1004D0006648007881F853006548007881F852003A
:1004E0006448007881F851005A21704800F0CCFA35
:1004F000644908805A20644908606449614800885A
:1005000000F0FEFA6249086000240CE05F48005DDC
:1005100066495D4A126888545B480068401C5A4925
:100520000860601CC4B25A4800688442EEDB5A205E
:100530005E49554A1268885453480068401C524925
:1005400008600846008881B2584800F01DFF4FF44B
:100550007A7001F01AFA02F0BAF80821414800F066
:10056000F1FF4FF47A7001F010FA4FF47A7001F055
:100570000CFA3D483D4B3E4A3E4900904D480068CC
:1005800000F00DFB384800784B4981F845003748AA
:10059000007881F843003648007881F842003548F9
:1005A000007881F841003048304B314A31490090A1
:1005B0004248006800F0F3FA2B4800783E4981F881
:1005C00056002A48007881F854002948007881F8BC
:1005D00053002848007881F852005A21364800F02C
:1005E00053FA284908805A20274908602749254896
:1005F000008800F085FA2649086000240CE02348B2
:10060000005D2D49204A126888541F480068401C2C
:100610001D490860601CC4B21D4800688442EEDBBE
:100620005A212548184A1268815417480068401C0E
:10063000154908600846008881B21F4800F0A4FEF2
:100640004FF47A7001F0A1F94FF47A7001F09DF93E
:100650004FF47A7001F099F902F039F8184831E056
:100660004800002040000020050000200400002079
:100670000300002002000020D8040020D400002045
:10068000DC04002000000020080000200C000020F6
:1006900010000020E404002070000020E804002086
:1006A0003000002038000020D40400203801002051
:1006B000D0040020E00400209C010020EC04002075
:1006C0001F06002000795E4981F846005D48C07829
:1006D00081F845005B48807881F8430059484078AC
:1006E00081F842005748007881F841005648C078A8
:1006F00081F855005448807881F854005248407879
:1007000081F852005048007881F851005A214C4835
:1007100000F0BAF94D4908805A204D4908604D490A
:100720004A48008800F0ECF94B49086000240CE0CE
:100730004848005D4249464A126888544448006867
:10074000401C43490860601CC4B2434800688442AE
:10075000EEDB5A203A493E4A126888543C48006809
:10076000401C3B4908600846008881B2344800F0CC
:100770000BFE4FF47A7001F008F94FF47A7001F033
:1007800004F94FF47A7001F000F901F0A0FF01F0D4
:1007900081F832490860324B324A33492F480068A9
:1007A00000F043FA2E480078304981F847002D4880
:1007B000007881F846002C48007881F845004921EE
:1007C0002A4800F061F92149088049202049086041
:1007D00020491E48008800F093F91F490860002452
:1007E0000CE01C48005D2149194A126888541848D9
:1007F0000068401C16490860601CC4B216480068B6
:100800008442EEDB5A211948114A1268815410487B
:100810000068401C0E4908600846008881B21348F1
:1008200000F0B2FD4FF47A7001F0AFF801F04FFF25
:100830000A210F4800F0A3FF00200E49087029E5A7
:10084000000200201F0600200B06002000000020F0
:10085000080000200C0000201000002014000020E0
:100860000500002004000020030000206402002096
:1008700066000020F0040020704700BFFEE700BFC4
:10088000FEE700BFFEE700BFFEE770477047704716
:10089000704700000CB50020019000906C48006883
:1008A00040F480306A49086000BF6948006800F47D
:1008B000003000900198401C0190009818B90198F0
:1008C000B0F5A06FF1D16248006800F4003010B1BB
:1008D0000120009001E0002000900098012843D101
:1008E0005C48006840F010005A49086008460068FB
:1008F00020F0030008600846006840F0020008602D
:100900005348406852494860084640684860084675
:10091000406840F4806048600846406820F47C10DD
:1009200048600846406840F4E8104860084600689F
:1009300040F08070086000BF4548006800F000701B
:100940000028F9D04248406820F003004049486040
:100950000846406840F00200486000BF3C484068DC
:1009600000F00C000828F9D10CBD10B5FFF792FF7C
:1009700010BD10B53648006840F0010034490860E9
:1009800008464068344908403149486008460068D4
:10099000324908402E4908600846006820F480204B
:1009A00008600846406820F4FE0048604FF41F00CD
:1009B0008860FFF7DAFF4FF000602949086010BD3A
:1009C00010B5002100200022214B5B6803F00C01D0
:1009D00021B1042906D0082928D107E0214B224C57
:1009E000236027E01F4B204C236023E0184B5B68FB
:1009F00003F47010164B5B6803F48032022303EBA0
:100A0000904022B9194B4343174C23600DE0104B23
:100A10005B6803F4003323B1144B4343124C23604F
:100A200003E0104B4343104C236003E00D4B0E4C8E
:100A3000236000BF00BF064B5B68C3F303130C4C7D
:100A4000E15C094B1B68CB40074C236010BD0000E4
:100A500000100240002002400000FFF8FFFFF6FEF9
:100A600008ED00E000127A001800002000093D00A7
:100A70001C00002010B50346002002E00C5C1C5452
:100A8000401C9042FADB10BDF0B502460B46002038
:100A900000240021082130E0555C565CA62E06D1CA
:100AA0004E1C965D012E02D1491CA62512E0565C13
:100AB000A62E06D14E1C965D022E02D1491CA525FC
:100AC00008E0565C5B2E05D14E1C965D012E01D1CF
:100AD000491C5B25565C5B2E05D14E1C965D022E93
:100AE00001D1491C5A25C6B2EFB286EA0704674E07
:100AF00036F8146086EA1020491C9942CCDBF0BD20
:100B000010B5024600200A70401C0B78A52B05D1B9
:100B1000A6230B7002234B70401C17E00B78A62B0A
:100B200004D10B7001234B70401C0FE00B785A2B43
:100B300005D15B230B7002234B70401C06E00B7841
:100B40005B2B03D10B7001234B70401C130A0B5419
:100B50000B5CA52B06D1A6230B540224431CCC54BA
:100B6000401C1AE00B5CA62B05D10B540124431C3E
:100B7000CC54401C11E00B5C5A2B06D15B230B5468
:100B80000224431CCC54401C07E00B5C5B2B04D1BB
:100B90000B540124431CCC54401C401C10BDF0B528
:100BA000059C4FF47A7590FBF5F50A2695FBF6F750
:100BB00006FB17550D700D7815B920250D7002E054
:100BC0000D7830350D70642590FBF5F50A2695FB00
:100BD000F6F706FB175515700D78202D04D1157802
:100BE00015B92025157002E01578303515700A25E5
:100BF00090FBF5F50A2695FBF6F706FB17551D70D9
:100C00001578202D04D11D7815B920251D7002E01E
:100C10001D7830351D700A2590FBF5F605FB16058D
:100C20002570257830352570F0BD70B5642490FBB3
:100C3000F4F40A2594FBF5F605FB16440C700C78C9
:100C400014B920240C7002E00C7830340C700A24A3
:100C500090FBF4F40A2594FBF5F605FB164414709A
:100C60000C78202C04D1147814B92024147002E0DC
:100C70001478303414700A2490FBF4F504FB150446
:100C80001C701C7830341C7070BD0000B80200204D
:100C900010B586B000240121480501F0AAFE01210B
:100CA000082001F099FEC020ADF8140003208DF853
:100CB00016001C208DF8170005A9984801F0AEF920
:100CC000974801900020ADF808004BF6FF70ADF892
:100CD0000A003C20ADF80C004FF48060ADF80E0027
:100CE0000001ADF8100001A98E4801F0FEFA0122C2
:100CF0004FF4E0618B4801F0E1FB1F208DF800000C
:100D000001208DF8010000208DF8020001208DF8EF
:100D10000300684600F091FE0121824801F063FB68
:100D200000BF02E080490C55641CFF2CFADB06B0C2
:100D300010BD10B504467D49204601F07BFC208B98
:100D400010BD10B5044679490E31204601F072FC01
:100D50000121204601F047FB10BD10B50020744969
:100D6000086074496F4801F088FC18B171496D48FA
:100D700001F09EFC6B4801F050FC6F4A811A9042D2
:100D800056D01ADC6D4AA0EB020190427ED00DDCF9
:100D9000102849D0B0F5806F79D0B0F1021F28D06B
:100DA000A0F500304038002872D126E0012970D02B
:100DB00007296FD03F29F7D17DE0614A881A914217
:100DC0007CD009DC022949D0A1F57F41FE390029F8
:100DD00073D0022974D16FE05A490844002866D0C4
:100DE000B0F5E00F61D0A0F5E8008038002867D1A9
:100DF0005CE04C48FFF79DFF63E04A4801F069FB67
:100E00005149087008460078A02801D100200870D8
:100E10004FF40001434801F00DFC20B94FF480115C
:100E2000404801F007FC4CE03E48FFF78AFF48E0ED
:100E30003C48FFF77EFF3C48434A1278815C3948C2
:100E400001F045FB40480078401C3F4908700846C7
:100E50000078FF2801DD0020087032E04FF4000127
:100E6000304801F0E7FB20B94FF480112D4801F024
:100E7000E1FB2E49891C2B4801F0DCFB324800784D
:100E8000401CC0B2304A1070014605E010E007E097
:100E900016E00FE013E011E0224801F018FB10E02B
:100EA0002449204801F004FC0BE00AE009E008E0D6
:100EB00007E002E005E004E003E002E001E000E01A
:100EC00000BF00BF10BD10B52049164801F0D5FB8A
:100ED00010BB1F49134801F0D0FBE8B91D49114868
:100EE00001F0CBFBC0B91C490E4801F0C6FB98B914
:100EF00010490C4801F0C1FB20B10E49094801F02E
:100F0000D7FB09E01549074801F0B7FB20B94FF0BE
:100F10000121044801F0B1FB10BD0000000C0140AC
:100F2000905F0100005400400C05002002000010FA
:100F30008401214200040001820006000100030038
:100F4000020001008400F5FFB804002000800001C9
:100F50000040000100100001000800010002000133
:100F600010B586B004460121042001F035FD0121B1
:100F7000480401F03EFD0420ADF8140018208DF85F
:100F8000170003208DF8160005A9A74801F046F8C0
:100F90000820ADF8140004208DF8170005A9A24818
:100FA00001F03CF801940020ADF80800ADF80A000B
:100FB000ADF80C00ADF810000C20ADF80E004FF4A9
:100FC000806000F035FD26208DF8000001208DF8AE
:100FD00001008DF802008DF80300684600F02DFD39
:100FE00001A9924801F09FFD012240F225518F484E
:100FF00001F031FE01218D4801F021FE06B010BD47
:1010000070B505460E4600240CE000BF402187481D
:1010100001F0F0FE0028F9D0295D844801F07CFE43
:10102000601C84B2B442F0DB00BF40217F4801F075
:10103000E1FE0028F9D070BD10B502460B46002134
:1010400000BF07E0505C5C5CA04201D0002010BDF6
:10105000481CC1B20629F5DB0120F8E71CB574A1D4
:1010600003C9CDE9000140F22551704801F0D8FED6
:1010700000287DD06D4801F053FEC4B26E48007860
:10108000002876D16D480078002848D1242C08D15A
:101090006B4801780078401C694A107069484454D4
:1010A0003DE068480078242839D165480078002858
:1010B00035D0634801780078401C614A107061485F
:1010C000445410460078062829D169465D48FFF748
:1010D000B3FF01281DD15C490870584908700020F1
:1010E0005749087010E0574855490978425C5748FD
:1010F00001780078401C554B1870554842545048B0
:101100000078401C4E4908704D4800780528EADBFD
:1011100002E00020494908700020494908704A4807
:10112000007801286DD10D2C44D048480178007812
:10113000401C464A1070464844542C2C05D1454862
:101140000078401C434908705BE0424800780A2858
:101150002FD2DFE800F02E0511121B1C2E2E2E259B
:101160003D4801780078401C3B4A10703B4801E044
:1011700059E040E044541CE000BF39480178007851
:10118000401C374A10703748445412E000BF3648BC
:1011900001780078401C344A10703448445408E008
:1011A000334801780078401C314A1070314844546B
:1011B00000BF26E00D202649244A127888540A21CF
:1011C000234A22480078401C11540020244908700A
:1011D00025490870264908701F4908701B49087086
:1011E000194908701549087001201349087000203A
:1011F0001849087005E000200F49087014481E497E
:1012000008600821094801F0F5FD012806D10748CA
:1012100001F086FD0821054801F0F9FD40F2255155
:10122000024801F0F4FD1CBD0008014000440040EC
:101230002447504747410000C4040020CE0400204A
:10124000CD040020C7040020CF040020C5040020E6
:101250005B060020C6040020BF04002047060020D3
:10126000BC0400200B060020BD0400201F06002047
:10127000BE04002033060020C004002010B586B054
:1012800004460121C80401F0B4FB0121102001F043
:10129000A3FB0C20ADF8140001208DF816001020DF
:1012A0008DF8170005A9604800F0B8FE4FF4806083
:1012B000ADF8140018208DF8170003208DF81600E3
:1012C00005A9594800F0AAFE4FF40060ADF81400DB
:1012D00004208DF8170005A9534800F09FFE4FF435
:1012E000806000F0A5FB34208DF8000003208DF80D
:1012F000020001208DF80300684600F09EFB019477
:101300000020ADF80800ADF80A00ADF80C00ADF80B
:1013100010000C20ADF80E0001A9444801F003FCB8
:10132000012240F22551414801F095FC01213F483E
:1013300001F085FC40213D4801F069FD06B010BD7B
:1013400010B504460421384800F015FF082136483E
:1013500000F011FF012000F018FB2146334801F096
:10136000DBFC00BF8021314801F044FD0028F9D0AA
:10137000012000F00AFB04212B4800F0FEFE0821AA
:10138000294800F0FAFE10BD70B505460E4604214E
:10139000254800F0F0FE0821234800F0ECFE012073
:1013A00000F0F3FA00240CE000BF40211F4801F0D8
:1013B00021FD0028F9D0295D1C4801F0ADFC601C1E
:1013C00084B2B442F0DB00BF4021184801F012FDA6
:1013D0000028F9D0012000F0D8FA0421124800F0CA
:1013E000CCFE0821104800F0C8FE70BD10B540F2D8
:1013F00025510E4801F014FD18B10C4801F090FC85
:10140000C4B20821094801F0F5FC012806D10748BB
:1014100001F086FC0821054801F0F9FC40F2255155
:10142000024801F0F4FC10BD00100140004C0040E7
:1014300010B586B004460121880401F0DAFA0121D2
:10144000082001F0C9FA0121102001F0C5FA30206E
:10145000ADF8140001208DF8160010208DF817004B
:1014600005A9924800F0DAFD4FF48060ADF8140051
:1014700018208DF8170003208DF8160005A98C4858
:1014800000F0CCFD4FF40060ADF8140004208DF89E
:10149000170005A9864800F0C1FD4FF4A06000F0D8
:1014A000C7FA27208DF8000003208DF802000120E4
:1014B0008DF80300684600F0C0FA01940020ADF8F2
:1014C0000800ADF80A00ADF80C00ADF810000C20D3
:1014D000ADF80E0001A9774801F025FB012240F28A
:1014E0002551744801F0B7FB0121724801F0A7FBB8
:1014F0004021704801F08BFC06B010BD10B50446C9
:1015000010216A4800F037FE2021684800F033FEC1
:10151000012000F03AFA2146664801F0FDFB00BFC9
:101520008021644801F066FC0028F9D0012000F019
:101530002CFA10215D4800F020FE20215B4800F0CD
:101540001CFE10BD70B505460E461021574800F030
:1015500012FE2021554800F00EFE012000F015FA81
:1015600000240CE000BF4021524801F043FC002859
:10157000F9D0295D4F4801F0CFFB601C84B2B44222
:10158000F0DB00BF40214B4801F034FC0028F9D0CB
:10159000012000F0FAF91021444800F0EEFD20216E
:1015A000424800F0EAFD70BD10B540F225514148B7
:1015B00001F036FC002865D03E4801F0B1FBC4B212
:1015C0003D483E49097844543C480078401C3B491A
:1015D0000870394800780A280DD108460078092893
:1015E00009D135488179407901EB00203449086000
:1015F000002032490870304800780B280DD12F4860
:101600000078072809D12C480179C07801EB002027
:101610002C490860002029490870274800780328D1
:1016200030D12648007811282CD123480179C07880
:1016300001EB0020244908601F488179407901EBC3
:101640000020224908601C48017AC07901EB002083
:101650001F4908601848817A407A01EB00201D4933
:1016600008601548017BC07A01EB00201A49086028
:101670001148817B407B01EB002018490860002065
:101680000E49087008210B4801F0B4FB012806D16F
:10169000084801F045FB0821064801F0B8FB40F27C
:1016A0002551044801F0B3FB10BD000000100140BB
:1016B000000C01400048004023070020F0040020F7
:1016C000D0040020D4040020DC040020D804002032
:1016D000E0040020E4040020E8040020EC040020E2
:1016E00010B586B00446012144F2040001F074F9FB
:1016F0004FF40070ADF8140003208DF81600182088
:101700008DF8170005A93B4800F088FC4FF4806075
:10171000ADF8140004208DF8170005A9354800F035
:101720007DFC4FF4A06000F083F925208DF80000C7
:1017300001208DF801008DF802008DF80300684645
:1017400000F07BF901940020ADF80800ADF80A0024
:10175000ADF80C00ADF810000C20ADF80E0001A99A
:10176000254801F0E0F9012240F22551224801F01C
:1017700072FA0121204801F062FA06B010BD70B57E
:1017800005460E4600240CE000BF40211A4801F037
:1017900031FB0028F9D0295D174801F0BDFA601C23
:1017A00084B2B442F0DB00BF4021134801F022FBB9
:1017B0000028F9D070BD10B540F225510E4801F057
:1017C0002FFB18B10C4801F0ABFAC4B208210A484B
:1017D00001F010FB012806D1074801F0A1FA082109
:1017E000054801F014FB40F22551034801F00FFBBE
:1017F00010BD0000000801400038014000B587B06E
:101800000121102001F0E8F80121480201F0E4F87C
:101810004FF4004001F044F80120ADF8180000201A
:101820008DF81B0006A9374800F0F8FB0020019056
:101830008DF808008DF809004FF460200390002017
:10184000049001208DF8140001A92F4800F085F9BB
:10185000072301220A212C4800F017FA01212A4807
:1018600000F0A7F9284800F0C6F900BF264800F0AC
:10187000C7F90028FAD1244800F0CCF900BF22486B
:1018800000F0CDF90028FAD101211F4800F0D1F96C
:1018900007B000BD2DE9F0470024A14600BF10E0CD
:1018A0000121194800F0C5F900BF0221164800F0D7
:1018B00031FB0028F9D0144800F04EFA044409F135
:1018C0000109B9F1320FEBDB3220B4FBF0F440F642
:1018D000D860844200D9044640F6DE10844200D22B
:1018E0000446A4F6C41001F0A0FC07460022074BF2
:1018F00001F014FB054601F069FC04462046BDE8F2
:10190000F0870000001001400024014000002A4040
:1019100010B56FF0040000F0DAF82E4800682E4988
:10192000B0FBF1F02D4908700846007800EB40014B
:10193000C1EBC0104FF6FF7101EAC00028490880D2
:1019400010BD0146254A12784A434FF0E0235A6100
:1019500000229A611A46126942F001021A6100BF20
:101960004FF0E022106900F001021AB100F4803259
:10197000002AF5D04FF0E022126922F001024FF068
:10198000E0231A6100229A6170470146144A1288C6
:101990004A434FF0E0235A6100229A611A461269C5
:1019A00042F001021A6100BF4FF0E022106900F01E
:1019B00001021AB100F48032002AF5D04FF0E02283
:1019C000126922F001024FF0E0231A6100229A61AD
:1019D000704700001800002000127A00F204002076
:1019E000F404002010B54FF4A06000F021F810BD01
:1019F0000948804709480047FEE7FEE7FEE7FEE7A3
:101A0000FEE7FEE7FEE7FEE7FEE7FEE704480549DE
:101A1000054A064B704700007309000831010008B1
:101A2000A8070020A80D0020A8090020A809002070
:101A300031490143314A1160704770B500210023DC
:101A40000F22C47804B32D4C246804F4E064C4F578
:101A5000E064210AC1F10403CA40447804FA03F1A6
:101A60008478144021430901254C0678A155047857
:101A700004F01F050124AC4005786D11AD0005F19F
:101A8000E025C5F8004109E0047804F01F050124B1
:101A9000AC401C4D0678761145F8264070BD1A4AB8
:101AA0000A400243154B1B1F1A60704739B1134A95
:101AB000121D12680243114B1B1D1A6006E00F4AEB
:101AC000121D126882430D4B1B1D1A6070470428BB
:101AD00008D14FF0E021096941F004014FF0E02204
:101AE000116107E04FF0E021096921F004014FF096
:101AF000E0221161704700000000FA050CED00E0E3
:101B000000E400E080E100E080FFFF1F10B5044624
:101B1000FA48844208D10121401500F077FF0021E6
:101B2000601500F073FF17E0F548844208D10121E9
:101B3000001500F06BFF0021201500F067FF0BE09F
:101B4000F048844208D10121C80300F05FFF002162
:101B50004FF4004000F05AFF10BD30B5024600209F
:101B600000235068E84C20400D790C6844EA0524B5
:101B7000204350609068E54C2040D1E902542C434A
:101B80004D7944EA450420439060D06A20F4700007
:101B90000C7C641EE4B2234340EA0350D06230BDA3
:101BA00000210160017141718160C16001210174F6
:101BB000704721B1826842F00102826003E08268CE
:101BC00022F001028260704721B1826842F4807283
:101BD000826003E0826822F480728260704710B5F0
:101BE0000023CBB21AB144681C43446002E044684D
:101BF0009C43446010BD816841F0080181607047DA
:101C0000014600208A6802F008020AB1012000E0C3
:101C100000207047816841F00401816070470146EF
:101C200000208A6802F004020AB1012000E00020CE
:101C3000704721B1826842F4A002826003E08268AA
:101C400022F4A00282607047014600208A6802F4F4
:101C500080020AB1012000E00020704710B50A465A
:101C600000210023416821F46041531E41EA4331C1
:101C7000416010BD21B1426842F40062426003E05D
:101C8000426822F4006242607047F0B504460D4697
:101C900000200021092D11DDE068A5F10A0606EB00
:101CA0004607072606FA07F18843A5F10A0606EB60
:101CB000460603FA06F10843E0600CE0206905EBF4
:101CC0004507072606FA07F1884305EB450603FAA0
:101CD00006F108432061072A0FDA606B561E06EBF7
:101CE00086071F2606FA07F18843561E06EB86066E
:101CF00005FA06F10843606322E00D2A0FDA206B33
:101D0000D61F06EB86071F2606FA07F18843D61F63
:101D100006EB860605FA06F10843206310E0E06A48
:101D2000A2F10D0606EB86071F2606FA07F1884387
:101D3000A2F10D0606EB860605FA06F10843E062FD
:101D4000F0BD21B1826842F48012826003E08268B3
:101D500022F48012826070470146C86C80B27047DE
:101D600066484C300068704721B1426842F4806296
:101D7000426003E0426822F480624260704721B111
:101D8000426842F48052426003E0426822F480528A
:101D9000426070470A460021816821F4E041114306
:101DA0008160704721B1826842F40042826003E0A2
:101DB000826822F400428260704721B1826842F456
:101DC0000212826003E0826822F40212826070478D
:101DD000014600208A6802F400120AB1012000E0E6
:101DE00000207047F0B5044615460020002200266A
:101DF000092911DDE068A1F10A0707EB470C072765
:101E000007FA0CF29043A1F10A0707EB470703FA20
:101E100007F21043E0600CE0206901EB410C07275A
:101E200007FA0CF2904301EB410703FA07F2104363
:101E30002061A06BC0F30156EF1C06F1010CA7EB6B
:101E40000C0707EB870C1F2707FA0CF29043EF1CD7
:101E500006F1010CA7EB0C0707EB870701FA07F265
:101E60001043A063F0BD10B50A4600210023816B2A
:101E700021F44011531E41EA0351816310BD08B59E
:101E8000002300930090009B0B440093009B1A607A
:101E900008BD08B5024600200090009201F128001C
:101EA000009B184400900098006880B208BD0A4664
:101EB00000214168164B194011434160704741624F
:101EC000826270470A460021416821F01F011143D8
:101ED0004160704740B109490831096841F4000187
:101EE000064A0832116007E004490831096821F404
:101EF0000001024A083211607047000000240140CE
:101F000000280140003C0140FFFEF0FFFDF7F1FF1B
:101F1000FFFD3FFF0246002013680B400BB101207C
:101F200000E000207047CA430260704770B5024667
:101F30000020002300240B125568CEB205EA0604E7
:101F400015681D4015B10CB1012000E0002070BDE6
:101F500000220A12D34303607047000010B5044604
:101F6000CC48844208D10121042000F04FFD00211B
:101F7000042000F04BFD46E0C748844208D101210F
:101F8000082000F043FD0021082000F03FFD3AE06A
:101F9000C248844208D10121102000F037FD002101
:101FA000102000F033FD2EE0BD48844208D101210D
:101FB000202000F02BFD0021202000F027FD22E052
:101FC000B848844208D10121402000F01FFD0021C3
:101FD000402000F01BFD16E0B348844208D10121E7
:101FE000802000F013FD0021802000F00FFD0AE0AA
:101FF000AE48844207D10121801500F007FD002181
:10200000A01500F003FD10BD10B50121084600F039
:10201000FDFC0021012000F0F9FC10BD2DE9F0418C
:10202000024600250026002000230024002791F806
:1020300003C00CF00F0591F803C00CF0100CBCF1BC
:10204000000F03D091F802C04CEA050591F800C0DA
:10205000BCF1000F31D0146800202BE04FF0010CD0
:102060000CFA00F3B1F800C00CEA03069E4220D13E
:1020700083004FF00F0C0CFA03F7BC4305FA03FC86
:102080004CEA040491F803C0BCF1280F06D14FF0CC
:10209000010C0CFA00FCC2F814C00AE091F803C06D
:1020A000BCF1480F05D14FF0010C0CFA00FCC2F84E
:1020B00010C0401C0828D1D31460B1F800C0BCF196
:1020C000FF0F34DD546800202EE000F1080C4FF0C3
:1020D000010808FA0CF3B1F800C00CEA03069E42AE
:1020E00021D183004FF00F0C0CFA03F7BC4305FA23
:1020F00003FC4CEA040491F803C0BCF1280F05D19D
:1021000000F1080C08FA0CF8C2F8148091F803C02A
:10211000BCF1480F07D100F1080C4FF0010808FA94
:102120000CF8C2F81080401C0828CED35460BDE8DB
:10213000F0814FF6FF710180022181700421C1708E
:1021400070470246002093680B400BB1012000E06D
:10215000002070470146886880B270470246002020
:10216000D3680B400BB1012000E00020704701460E
:10217000C86880B2704701617047416170470AB119
:10218000016100E041617047C16070474FF48032E7
:102190000A43826181618261826982697047024675
:1021A0000020434B18684FF68073184040EA021035
:1021B00008433F4B186070473E49C8617047F0B50F
:1021C0000A46002300240021002500F00046B6F155
:1021D000004F02D1364EF16901E0354E7168C0F30F
:1021E000034583B200F44016B6F5401F08D121F034
:1021F00070612F4E766826F070662D4F7E6012E07B
:1022000000F48016B6F5801F06D1032606FA05F401
:10221000A14341F0706106E0460D360103FA06F66F
:10222000B14341F0706122B1460D360103FA06F662
:10223000314300F00046B6F1004F02D11C4EF1616F
:1022400001E01B4E7160F0BD30B500228B071C0F02
:102250000F2303FA04F2164B08338C1053F8243082
:102260009343134C08348D1044F8253023468C10CA
:1022700053F824308C07240F00FA04F423430C4C49
:1022800008348D1044F8253030BD0A49DC3108602F
:102290007047000000080140000C014000100140A0
:1022A0000014014000180140001C014000200140C2
:1022B000000001400000204210B50446F748844267
:1022C00009D10121480500F0AEFB00214FF40010B8
:1022D00000F0A9FB08E00121880500F0A4FB002123
:1022E0004FF4800000F09FFB10BD2DE9F04385B056
:1022F00004460D460026B1460427DFF8A483A688CD
:102300004FF6C0700640684600F0F9FADDF8088024
:10231000E448B8FBF0F01FFA80F946EA0906A68007
:1023200020884FF6FE71084020800026DE4928688C
:1023300088420CD828684000B8FBF0F087B2042F20
:1023400000DA04273E4309F10100208427E0E888F1
:102350004BF6FF71884206D1286800EB4000B8FBBD
:10236000F0F087B209E0286800EBC00101EB001033
:10237000B8FBF0F087B247F48047C7F30B0008B909
:1023800047F0010747F4004006434FF4967009FBFD
:1023900000F04FF47A7190FBF1F0401C2084A6838A
:1023A000208840F00100208026884FF6F530064056
:1023B000A8886989084306432680A8892989084393
:1023C000208105B0BDE8F08341F288310160002131
:1023D00081804BF6FF71C1800021018141814FF462
:1023E00080418181704721B1028842F00102028060
:1023F00004E002884FF6FE731A400280704721B154
:10240000828842F40062828004E082884FF2FF7387
:102410001A408280704721B1828842F480528280C3
:1024200004E082884EF6FF731A408280704721B123
:10243000028842F48072028004E002884FF6FF6353
:102440001A400280704721B1028842F40072028073
:1024500004E002884FF6FF531A400280704721B112
:10246000028842F48062028004E002884FF6FF3363
:102470001A40028070470A46002181894FF6017395
:10248000194002F0FE0319438181704721B182890E
:1024900042F00102828104E082894FF6FE731A4005
:1024A0008281704721B1028842F04002028004E03C
:1024B00002884FF6BF731A40028070471AB18388B2
:1024C0000B43838002E083888B43838070470182C3
:1024D00070470146088AC0B2704712B141F001014D
:1024E00002E04FF6FE7319400182704708B50246BC
:1024F0000020009000920098084400900098008806
:1025000008BD21B1028842F40042028003E0028843
:10251000C2F30E0202807047B1F5006F04D1028849
:1025200042F40062028004E002884FF2FF731A4016
:1025300002807047B1F5005F04D1028842F4005276
:10254000028004E002884DF6FF731A400280704753
:1025500021B1028842F48052028004E002884EF6E3
:10256000FF731A4002807047B1F5006F04D10288F2
:1025700042F40062028004E002884FF2FF731A40C6
:102580000280704721B1028842F02002028004E0FC
:1025900002884FF6DF731A40028070470146088BAD
:1025A0000012704721B1028842F01002028004E05C
:1025B00002884FF6EF731A400280704721B90288F3
:1025C00042F08002028004E002884FF67F731A40D6
:1025D00002807047B1F5804F05D0828B4BF6FF73B8
:1025E0001A40828303E0828B42F4804282837047E8
:1025F00070B502460024002500230020958A138B25
:102600001B0445EA030626F07F4404EA01068E42D5
:1026100001D1012000E0002070BD10B5014600206E
:10262000002300228B8A0A8B120443EA020424F05E
:102630007F4010BD0CB5024600200023019300939B
:1026400000920B0F019321F07F41019B1BB1009B76
:102650001433009303E0090C009B18330093009B94
:102660001B680B400BB1012000E000200CBD0022D4
:1026700021F07F42D3438382704730B50246002069
:102680000023948801F0E06504EA154321F07F41BE
:10269000948A0C4054B14BB1012008E00054004032
:1026A00000127A0040420F00A0860100002030BDD9
:1026B000002221F07F42D343838270470E49086095
:1026C00070470D49486070470B49886070474AF66B
:1026D000AA200949086070474CF6CC4006490860BA
:1026E000704701460020044AD2680A400AB101201E
:1026F00000E000207047000000300040DF48006824
:1027000040F00100DD49086008464068DC490840A7
:10271000DA49486008460068DA490840D749086045
:102720000846006820F4802008600846406820F4CD
:10273000FE0048604FF41F0088607047CF49096869
:1027400021F48031CD4A11601146096821F48021BD
:102750001160B0F5803F03D0B0F5802F0ED106E0B8
:10276000C649096841F48031C44A116007E0C34991
:10277000096841F4A021C14A116000E000BF00BF18
:10278000704710B501460022002300204A11012A9B
:1027900002D1BA4C236806E0022A02D1B74C236A60
:1027A00001E0B64C636A01F01F02012494401C4012
:1027B0000CB1012000E0002010BD38B500200090D1
:1027C0000024002500BF3120FFF7DBFF05460098FD
:1027D000401C00900098B0F5A06F01D0002DF2D001
:1027E0003120FFF7CEFF08B1012400E0002420468D
:1027F00038BD01460020A14A106820F0F80040EAE8
:10280000C10010607047A049086070470246002070
:102810009A4B586820F47C1042EA01031843974B06
:102820005860704798490866704701460020934AEF
:10283000506820F003000843506070478F4840689C
:1028400000F00C007047014600208C4A506820F0D0
:10285000F00008435060704701460020874A5068E6
:1028600020F4E06008435060704701460020834A2E
:10287000506820F4605040EAC1005060704729B1B0
:102880007E4A527A02437D4B5A7204E07B4A527A66
:1028900082437A4B5A7270477B49D831086070473F
:1028A00001460020754A506820F4404008435060BB
:1028B00070470021714A20321170704A82F820104E
:1028C000012802D004280AD104E001216B4A2032F9
:1028D000117005E00521694A2032117000E000BF47
:1028E00000BF70476949086070476449096A01433D
:1028F000624A11627047654944390860704730B5D3
:1029000000210022002400235C4D6D6805F00C01BD
:1029100021B1042905D0082923D105E05C4D0560CB
:1029200022E05B4D05601FE0544D6D6805F47012A8
:10293000524D6D6805F48034022505EB92421CB9B6
:10294000544D554305600BE04C4D6D6805F4003562
:102950001DB1504D5543056002E04D4D5543056096
:1029600002E04B4D056000BF00BF444D6D6805F0AF
:10297000F0010909484D6B5C0568DD4045603F4D3D
:102980006D6805F4E061090A434D6B5C4568DD4004
:1029900085603A4D6D6805F46051C90A3E4D6B5C27
:1029A0004568DD40C560354D6D6805F44041890BD3
:1029B0003A4D6B5CC568B5FBF3F5056130BD29B1D7
:1029C0002E4A526902432D4B5A6104E02B4A526948
:1029D00082432A4B5A61704729B1284A92690243BF
:1029E000264B9A6104E0254A92698243234B9A61FF
:1029F000704729B1214AD2690243204BDA6104E0D1
:102A00001E4AD26982431D4BDA61704729B11B4AC5
:102A1000D2680243194BDA6004E0184AD268824354
:102A2000164BDA60704729B1144A12690243134BFE
:102A30001A6104E0114A12698243104B1A6170470F
:102A400012494039086070470F49C86470470B4904
:102A5000C87170470948406A40F080700749486271
:102A6000704701460020054A92680A400AB10120D9
:102A700000E0002070470149887270470010024052
:102A80000000FFF8FFFFF6FE0000424280044242D1
:102A900000127A0000093D00F6040020060500201F
:102AA00010B50446FB48844209D101218803FFF791
:102AB000ADFF00214FF48040FFF7A8FF32E0F64859
:102AC000844209D101214804FFF7ADFF00214FF4F2
:102AD0000030FFF7A8FF25E0F048844209D101212A
:102AE0008804FFF7A0FF00214FF48020FFF79BFF31
:102AF00018E0EB48844209D10121C804FFF793FF95
:102B000000214FF40020FFF78EFF0BE0E5488442E0
:102B100008D101210805FFF786FF00214FF480103E
:102B2000FFF781FF10BD2DE9F04786B005460E4640
:102B30000024A24600BFA1460027B08900B100BF13
:102B40002F462C8A4CF6FF700440F08804432C82F8
:102B5000AC894EF6F3100440B0883189084371897E
:102B600008430443AC81AC8A4FF6FF400440B0896F
:102B70000443AC8201A8FFF7C2FEC648874202D1D7
:102B8000DDF810A001E0DDF80CA0A88900F40040F9
:102B900040B10AEBCA0000EB0A1031684900B0FBF3
:102BA000F1F807E00AEBCA0000EB0A10316889006F
:102BB000B0FBF1F86420B8FBF0F0040120096421B7
:102BC00001FB1089A88900F4004040B1322000EBDD
:102BD000C900B0FBF1F000F00700044308E0322028
:102BE00000EB09106421B0FBF1F000F00F0004438A
:102BF0002C8106B0BDE8F0874FF41651016000212A
:102C00008180C18001810C21418100218181704737
:102C100010B502460020108A4FF2FF0318400B88BF
:102C20004C8823438C882343CC8823431843108249
:102C300010BD0021018041808180C180704721B199
:102C4000828942F40052828104E082894DF6FF734A
:102C50001A4082817047F0B5034600240026002503
:102C6000002040F66A17B94200D100BF1846C1F3F0
:102C7000421401F01F06012707FA06F5012C01D1C5
:102C80000C3004E0022C01D1103000E014301AB1F5
:102C900007682F43076002E00768AF430760F0BD95
:102CA0001AB1838A0B43838202E0838A8B43838237
:102CB0007047028A4FF6F0731A400282028A0A4372
:102CC0000282704782894FF2FF731A4082818289A3
:102CD0000A438281704721B1828942F002028281D7
:102CE00004E082894FF6FD731A4082817047028AA0
:102CF0004FF6DF731A400282028A0A43028270474B
:102D000021B1028A42F48042028204E0028A4BF638
:102D1000FF731A4002827047C1F308028280704735
:102D200001468888C0F308007047818941F001019D
:102D300081817047028BD2B20283028B42EA012268
:102D400002837047028B02F47F420283028B0A43A4
:102D50000283704721B1828A42F02002828204E01D
:102D6000828A4FF6DF731A408282704721B1828ACD
:102D700042F01002828204E0828A4FF6EF731A401A
:102D80008282704721B1828A42F00802828204E086
:102D9000828A4FF6F7731A408282704721B1828986
:102DA00042F40042828103E08289C2F30E028281F2
:102DB000704721B1828A42F40062828204E0828AF2
:102DC0004FF2FF731A4082827047828A4FF6FB737C
:102DD0001A408282828A0A438282704721B1828AA3
:102DE00042F00202828204E0828A4FF6FD731A40AA
:102DF0008282704702460020B1F5007F00D100BFFB
:102E000013880B400BB1012000E00020704701F453
:102E10000072B2F5007F00D100BFCA430280704744
:102E200070B50246002400230025002040F66A16F3
:102E3000B14200D100BFC1F3421501F01F030126CA
:102E400006FA03F3012D02D19689334006E0022DE4
:102E500002D1168A334001E0968A33400C120126D3
:102E600006FA04F41688344013B10CB1012000E0D6
:102E7000002070BD10B50022002340F66A14A14264
:102E800000D100BF0A1201249440A3B2DC430480A5
:102E900010BD0000003801400044004000480040E0
:102EA000004C004000500040704770477047754626
:102EB00000F028F8AE4605006946534620F00700AA
:102EC000854618B020B5FEF7A1FDBDE820404FF0C3
:102ED00000064FF000074FF000084FF0000B21F004
:102EE0000701AC46ACE8C009ACE8C009ACE8C009D1
:102EF000ACE8C0098D4670470446AFF30080204619
:102F0000FDF77DF90048704744070020014918206B
:102F1000ABBEFEE726000200704700002DE9C0416D
:102F200030B4DFF8A0C23CEA111418BF3CEA131415
:102F300000F0EC8081EA03051CEA111444EAD57420
:102F400018BF1CEA131500F0C780A4EB05044FF06E
:102F5000004545EAC12145EAC32341EA505143EA0D
:102F6000525304F17F74994204F500344FEAC020B3
:102F70004FEAC22208BF904200F09C804FEA1365DE
:102F80000FF24016765D4FEA134506FB05F7C7F1D1
:102F9000807706FB07F74FEAD737A7FB036876422F
:102FA000C8F58038A7FB06CE38BFA8F1010807FB9B
:102FB00008E64FF0000EA6FB028CE6FB03CEDCF128
:102FC000000CCEF1004E38BFAEF1010EA6FB0C583E
:102FD0004FF000074FF00005E6FB0E87A1FB08C687
:102FE000A0FB07CE16EB0E0645F10005E1FB0765D9
:102FF00015F1E04E7EBFA4F580345FEA46066D41D0
:1030000016F1800745F100054FEA17274FEA0666DB
:1030100047EA0567A6F1DE46B6F1805F4FEA15255F
:103020001FD9384624F0010C05EBC471BCF1FE6FCA
:1030300001EB0C1102D8F0BCBDE8008124425CBF5A
:1030400001F5801E9EEAC47F02D4F0BCBDE8008179
:10305000244238D4F0BCA1F1C041BDE8004100F0E9
:1030600045B94FEAD22242EA43524FEAD323A7FBA3
:1030700002864FEAD02040EA415007FB03661EEA71
:103080000E0F4FEAD12105FB026658BFA6EB005692
:10309000B6EB00564FEA520E4EEAC37E18EB0E0E08
:1030A00056EB530EBDD518EB02085E417F1C55F15F
:1030B0000005B6E74FF480154FF000074FF000060B
:1030C0004FF00008ADE7F0BC4FF0000001F1C04147
:1030D00001F00041BDE8008111EA0C1F0CEA131554
:1030E00000D00CE013EA0C1F00F025804FF0000028
:1030F000F0BC81EA030101F00041BDE80081F0BCB1
:10310000BDE8004181EA030100F0F0B8F0BCBDE881
:10311000004170B500F09CF8097EFC3E00F007B855
:1031200081EA03014FF0000001F00041704781EA9D
:10313000030100F0DBB8F0BCBDE800414FF0000037
:1031400021497047FFFDFBF9F7F5F4F2F0EEEDEBE6
:10315000E9E8E6E4E3E1E0DEDDDBDAD8D7D5D4D395
:10316000D1D0CFCDCCCBCAC8C7C6C5C4C2C1C0BFE1
:10317000BEBDBCBBBAB9B8B7B6B5B4B3B2B1B0AFE7
:10318000AEADACABAAA9A8A8A7A6A5A4A3A3A2A1CB
:10319000A09F9F9E9D9C9C9B9A9999989797969586
:1031A00095949393929191908F8F8E8E8D8C8C8B22
:1031B0008B8A8989888887878685858484838382AA
:1031C000828181800000FF070000F87F4FEA410301
:1031D0004FEA5353A3F58063D3F11E03C8BFD3F165
:1031E000210C0CDD4FF0004242EAC12242EA50526B
:1031F00032FA03FC8CEAE17CACEBE1707047102BF7
:10320000C4BF0020704703F5787CBCF1FF3F04D0B9
:103210006FF0004282EA2100704770B500F018F8A4
:103220004992248000207047F2E7B0FA80F310FA48
:1032300003F10AD0C3F11D0303F580634FEA415047
:103240004FEA035202EBD12170474FF00000704764
:103250000EF1020E2EF0030E5EF8046B364205D41A
:10326000012A43EB030515F5001F12D8012841EB95
:10327000010C1CF5001F0CD80ED14FEAD17C15F5BE
:10328000001F0CEB4C0C0CF1020C08BF4CEBD37C78
:1032900004E04FF0080C01E04FEAD37C0CEB4C0546
:1032A00026FA05F606F00706B6F1040C06D20EEB78
:1032B000860CBDE870404CF0010C6047DFE80CF074
:1032C000090B02024FF000414FF00000A1F5002170
:1032D00070BD19461046012851EB010418BFD4F502
:1032E000001484BF002001F0004170BD0808A0F563
:1032F00000114FEA3101704724474E4747412C30B7
:1033000030303030312C333131322E3531383537A1
:10331000362C4E2C31323132372E39303132353174
:103320002C452C312C382C312C302C4D2C2D33327B
:103330002C4D2C332C302A34420D0A0D0A0000008B
:1033400060330008000000200C0500006C0100083C
:10335000C43600080C0500209C080000C8010008C5
:10336000011984A24A04400901020304060708095E
:10337000330A032D02C5700B0810080184A0030353
:1033800001F45D068424A501220162801451020526
:1033900012A219101CD10F5A1908081231323334F5
:1033A0003536372812441BA306101163013B120C5B
:1033B00022201203420A140202011B0A0A101118E9
:1033C00016504D322E35A3BA203534A601CC672FC6
:1033D0006D33504D3130105C2037301172F70938A1
:1033E000642DCEC2B6C853480B32322E33A1E6202C
:1033F00020CAAA10080C3F33332E3525524820DC52
:10340000C35A643DB7E7CBD954380C2E30206D2F0A
:103410007320B7E7CFF274080A403730A1E32020C9
:10342000207B83642DD4EBC9F954081B4035322E20
:103430003564622020B4F3C6F8D1B9A3BA31303173
:103440002E334B5061FAD2641DBEADB6C864380C41
:103450003131372E3536452020CEB3101F33392E6B
:1034600030354EC80B1ABEC9646A33649A2A642187
:1034700039642B010164320F2809B5E7B3D8B5E7E9
:10348000C1BF685E3030254C135329071017C1C0E7
:1034900081C1400101C3C003800241C201C6C00610
:1034A000800741C7101005C1C581C4400401CCC0CC
:1034B0000C800D41CD10080FC1CF81CE400E1018E9
:1034C0000AC1CA81CB400B01C9C009800841C801AB
:1034D000D8C018801941D910081BC1DB81DA401A05
:1034E00010101EC1DE81DF401F01DDC01D801C41A8
:1034F000DC101814C1D481D5401501D7C01780162F
:1035000041D601D2C012801341D3101011C1D18114
:10351000D0401001F0C030803141F1100833C1F3C8
:1035200081F24032101036C1F681F7403701F5C004
:1035300035803441F410183CC1FC81FD403D01FF51
:10354000C03F803E41FE01FAC03A803B41FB10087B
:1035500039C1F981F84038101828C1E881E94029BB
:1035600001EBC02B802A41EA01EEC02E802F41EFF3
:1035700010102DC1ED81EC402C01E4C024802541C8
:10358000E5100827C1E781E64026101822C1E28134
:10359000E3402301E1C021802041E001A0C0608020
:1035A0006141A1100863C1A381A24062101066C1ED
:1035B000A681A7406701A5C065806441A410186C6E
:1035C000C1AC81AD406D01AFC06F806E41AE01AA4C
:1035D000C06A806B41AB100869C1A981A84068101E
:1035E0001878C1B881B9407901BBC07B807A41BAF3
:1035F00001BEC07E807F41BF10107DC1BD81BC4037
:103600007C01B4C074807541B5100877C1B781B62C
:103610004076101072C1B281B3407301B1C07180A5
:103620007041B0101850C190819140510193C05326
:10363000805241920196C05680574197101055C153
:103640009581944054019CC05C805D419D10085F51
:10365000C19F819E405E10185AC19A819B405B01B8
:1036600099C059805841980188C0488049418910C3
:10367000084BC18B818A404A10104EC18E818F4009
:103680004F018DC04D804C418C101844C184818500
:1036900040450187C047804641860182C042804341
:1036A0004183800841C1818180404013F832023655
:1036B000082D01020304041808060708090204067D
:0436C00046000000C0
:0400000508000131BD
:00000001FF
